S01E00004672656552544F535F4469676974616C5F53796E74682E73726563AA
S113000068220020D51F0000D11F0000D11F00006E
S113001000000000000000000000000000000000DC
S1130020000000000000000000000000C505000002
S11300300000000000000000ED0500003106000093
S1130040D11F0000D11F0000D11F0000D11F0000EC
S1130050D11F0000D11F0000D11F0000D11F0000DC
S1130060D11F000039180000491800005918000079
S1130070691800007918000089180000D11F0000D9
S1130080D11F0000D11F0000D11F0000D11F0000AC
S1130090D11F0000D11F0000D11F0000D11F00009C
S11300A0D11F0000D11F0000D11F0000D11F00008C
S11300B00000000010B5064C2378002B07D1054B37
S11300C0002B02D0044800E000BF0123237010BDC0
S11300D06C000020000000008033000008B5084BCD
S11300E0002B03D00748084900E000BF0748036815
S11300F0002B00D108BD064B002BFBD09847F9E735
S113010000000000803300007000002080330000F5
S11301100000000010B5490840230024814202D2A7
S1130120181C10BD1C1C631C091A9BB28842F9D907
S11301304023FF2CF4D814800023F1E7F0B5564691
S11301404D4644465F46F0B4041C251C89B012A8F1
S11301500678402075438D4206D909B03CBC9046D0
S11301609946A246AB46F0BD06920D1C221C002BFC
S11301704FD1301C6A4C0021A04700228146904692
S11301800020002300213F26203292461F3A029588
S1130190041C039340469446C8460D1CB14605E032
S11301A08A424BD04A46511E89462FD320214A46C3
S11301B0494252183BD4614691400A1C4E4661465E
S11301C024196D41B140474666462643174200D084
S11301D0341C029E039F01950094009C019DA41B66
S11301E0BD413E1C019F19430243BE421CD8039EDD
S11301F0BE4215D00B1C101C0199039A8A42CFD918
S1130200009C019D4A46511E8946CFD25C42240C73
S113021002E00024012B18D0069B00201C809CE7E0
S1130220029E009FBE42E5D9191C021CE2E7494622
S11302305246521A6146D1400A1CBFE7029A0099FD
S11302408A42AFD9009C019DDCE74B0F9846CB0056
S11302509A46301C00230021314CA047002305930B
S113026001339C46C1466B461B7D00220793002345
S11302703F279846002318E05C461D1C221C2B1CBB
S1130280241A8D41464602940395009C3443261C4F
S1130290994238D835D0B046994220D81DD0029C16
S11302A0039D221C2B1C013F1FD3202464423D19B3
S11302B02BD46446AC40251C92185B4164466646C8
S11302C01443BE40A3465446009634404E4635403F
S11302D02C43D1D1141C1D1CD0E79042DFD9141C2F
S11302E01D1C221C2B1C013FDFD2059B0D4AF61A54
S11302F0F60896420FD901330593082BB3D1402059
S11303002BE79042C7D94646C5E72024E51B64463F
S1130310EC40251CD0E7079B5C033443A4B27BE785
S113032059270000FF1F000030B50E4C83B023781E
S1130330051C002B06D0002904D1637883420FD01A
S11303401D200BE001A91320074B0D7098471320C3
S1130350064B9847012300206570237003B030BD1D
S11303600020FBE788000020991D0000FD1D00000F
S11303703A4B984243D00AD9394B984217D0394B5B
S1130380984232D0384B98421BD000207047374BEC
S1130390984220D0364B9842F7D1012943D0002906
S11303A03FD002293BD00329EFD13248EEE701299F
S11303B031D000292DD002292FD00329E5D12E4890
S11303C0E4E701293FD000293BD0022937D0032993
S11303D0DBD12A48DAE701293DD0002939D00229A6
S11303E02BD00329D1D12648D0E7012923D00029D5
S11303F01FD002291BD00329C7D12248C6E70129EF
S113040025D0002921D002290FD00329BDD11E48AF
S1130410BCE71E48BAE71E48B8E71E48B6E71E48C0
S1130420B4E70320B2E71D48B0E71D48AEE71D4816
S1130430ACE71D48AAE71D48A8E71D48A6E71D48E4
S1130440A4E71D48A2E71D48A0E71D489EE71D48F4
S11304509CE71D489AE71D4898E7C04600100042F3
S113046000180042001C0042001400420008004230
S1130470000C004203001F0003000F0003001300E0
S1130480030007000300190003000B0003000C0025
S113049003000D0003000E0003001E000300010012
S11304A003000A00030018000300160003001700ED
S11304B003000600030012000300100003001100F3
S11304C00300080003000900030004000300050002
S11304D070B586B0011C6846154B70CB70C070CBEC
S11304E070C0009B8B4211D0019B8B4211D0029BA8
S11304F08B4211D0039B8B4211D0049B8B4211D0B1
S1130500059B00208B4210D006B070BD0020C0B205
S1130510FAE70120C0B2F7E70220C0B2F4E70320F3
S1130520C0B2F1E70420C0B2EEE70530C0B2EBE799
S11305305C320000F0B547460C1C80B4904600289D
S113054012D1002A0DDD0A4E0A4D8F18211C306885
S11305502B6801349847BC42F8D1404604BC90460D
S1130560F0BD00239846F8E701204042F6E7C04674
S1130570AC010020A4010020F0B54746013880B446
S1130580022812D8002A15D00C4B151C0E1C00246E
S113059098460B4F02E00134A5420CD04346315D2E
S11305A018683B6898470028F5DA0120404204BCEB
S11305B09046F0BD0024201CF9E7C046AC010020A1
S11305C0A8010020084B196808681030F0C8A0463C
S11305D0A946B246BB4680F309882038F0C8714664
S11305E00D2001430847C046FC000020EFF30980BA
S11305F00E4B1A6820381060F0C044464D465646EB
S11306005F46F0C008B572B600F074F962B60CBC6F
S1130610116808681030F0C8A046A946B246BB4627
S113062080F309882038F0C81847C046FC00002031
S1130630802208B5034B52051A6072B6024B9847E4
S113064062B608BD04ED00E0D107000043685A68B3
S11306504A6042688A605A689160596041600861E2
S11306600368013303607047436882689A60836853
S113067042685A6003695A68824206D000220261C5
S11306801A68013A1A601868704782685A60F5E778
S113069038B5036C041C002B07D10568002D24D148
S11306A04068144B984765601FE0134D002A0DD134
S11306B01A1C8068A847226CA36894466268634445
S11306C0A360934211D32368A3600EE01A1CC06890
S11306D0A847236CE2685B422168D218E2608A4230
S11306E003D2626894466344E360A36B0133A3635B
S11306F038BDC046E9090000F927000010B5C46CF4
S113070082B00190002C0BD0A26BE36B9A4201D310
S113071072B6FEE7A26B934204D8002002B010BD6B
S113072072B6FEE70A1C074B201C01A99847636AAE
S1130730002BF2D0201C044B24309847431E9841D0
S1130740ECE7C046910600007109000070B500286E
S113075009D0002917D072B6846BC56BAC4204D3A0
S1130760002062B670BD72B6FEE7041C1E1C151C88
S11307701A1C144B9847A36C013309D0A36C0120B5
S11307800133A364EDE7046C002CE4D072B6FEE7F9
S1130790E36C002B07D0201C311C0B4B984701281D
S11307A00AD00120DDE7636A002BFAD0201C074B36
S11307B0243098470028F4D0002DF2D001232B6078
S11307C0EFE7C04691060000FD0600007109000035
S11307D0F8B55F4656464D464446F0B43A4B1B685E
S11307E0002B45D1394E3368013333603368002B15
S11307F048D0374C326823689A423DD3354F3B6822
S11308001B68002B30D03B68DB68DD6832686B689E
S1130810934250D8304B9946304B9846304B9B46C8
S113082006E03B68DB68DD6832686B68934242D857
S11308302B1D181C9A46C847AB6A002B02D0281CF3
S11308401830C8474246EB6A1268934201D94246BF
S113085013609800C0188000224B584451469847B2
S11308603B681B68002BDCD101235B42236003E05F
S11308701D4A1368013313603CBC90469946A24656
S1130880AB46F8BD134B1A681268002A01D072B641
S1130890FEE7164A196810681860116014490A685E
S11308A001320A601A681268002A06D10123084C32
S11308B05B4223609EE72360DEE71B68044CDB6831
S11308C0DB685B68236095E7F800002018010020CE
S11308D00000002090000020690600002001002094
S11308E0940000204D0600008C0000201C01002014
S11308F014010020194B1B68002B28D1184A1948F1
S113090011688B00591889004358002B0AD00EE057
S113091011680139116013689900CB189B00C35802
S1130920002B04D11368002BF2D172B6FEE71368D2
S11309309A00D3189B00C1184A6808335268C31838
S11309404A609A4207D0D268074B1A607047012266
S1130950064B1A60FAE752684A60F4E7F800002090
S11309602001002094000020FC000020240100202D
S113097070B5C368DC68002C26D0251C1835281CEB
S1130980124EB047124B1B68002B18D1251D281C92
S1130990B047104AE36A11688B4200D9136098008B
S11309A0C3180D489B00C018291C0C4B9847002005
S11309B00B4BE26A1B68DB6A9A42404170BD0948EE
S11309C0291C064B9847F2E772B6FEE76906000059
S11309D0F800002020010020940000204D060000B3
S11309E0FC0000200001002038B5002819D0C36A9B
S11309F0C26B934215D0041C051D0B4B281C984751
S1130A000522E36BD21AA261084AE36211688B42A1
S1130A1008D89800C01883000548291CC018054B45
S1130A20984738BD1360F4E76906000020010020F0
S1130A30940000204D060000F0B54D46444656464D
S1130A405F46F0B4051CB74B0C1C91B02960081C20
S1130A5090469946984701232268061C05201342B4
S1130A6006D011B03CBC90469946A246AB46F0BDB8
S1130A700227226817301740F3D1B01C8340AA49DB
S1130A8014360A6AF6B213430B622D239A46434680
S1130A9052469B5C0AA90B70301CA44B9847301C2F
S1130AA0A34B9847524643460021985CA14B984774
S1130AB04346DB7A42466B712423D35C0CAEAB71A4
S1130AC02523D35CEB71D37E2B72137F6B722B685F
S1130AD0181C9A46C847434637801A8A8023143024
S1130AE00292DB019A4200D1D0E000D8EAE0C023B0
S1130AF0029ADB019A4200D1F2E080231B029A425F
S1130B0000D0E8E0032309930023089343461B68BD
S1130B10424603934346DB68049343465B6905936B
S1130B2043461B7E06932623D35C079353689B4658
S1130B30002B00D1B4E080235B059B4500D0ADE0E1
S1130B402723D35C0021002B00D1E0E043465B7EE9
S1130B50002B03D0434652469B7E93732A68029F20
S1130B60D369002BFCD15346039A9981049B134308
S1130B70059A13435A4613431F43069B42461B02DE
S1130B801F43079B5B071F432723D35C002B01D123
S1130B9004331F4343461B7F590243465A7E930244
S1130BA04246527F0B4312024146134324228A5C7D
S1130BB05204134325228A5CC97A12041343424621
S1130BC019431389FF2B00D18FE08022520417436D
S1130BD019432C234246D35C002B03D1564B9B78FC
S1130BE09B0701D580231F432A68D369002BFCD1BE
S1130BF0534659602A68D369002BFCD1524608A990
S1130C0017604B73CB738B7343461B6B80220C931F
S1130C1043465B6B0027736043469B6B0A73B36068
S1130C204346DB6BF360454B9B46454B9A46BB0002
S1130C30F058F9B200282ED0431C05D008AB187325
S1130C40000CC0B20BA9D0470137042FEFD1281CE8
S1130C50002118223B4B0C30984700220023EA85E0
S1130C60AA626A62AA853032AB540132AB540132B3
S1130C70AB540132AB542868C847041C324B334987
S1130C809847334BA400E5500020EAE60823099373
S1130C90002308933AE7201CD847CDE7002155E705
S1130CA027234246D35C002B27D0099B0093106A6C
S1130CB0916A321C089B274FB847002800D0D0E621
S1130CC0318843E780239B019A4204D1102309937E
S1130CD00F3B08931AE7102309930023089315E7A1
S1130CE008230993073B089310E7D37E002B00D118
S1130CF06FE78023DB041F436BE7136AC0B21F1C3A
S1130D00154B9847099B011C0093381CD1E7136AC3
S1130D10C0B21F1C104B9847321C011C0F4B381CCF
S1130D209847CAE7D104000000040040991D000060
S1130D30FD1D000029030000002000417103000094
S1130D40D11E00000B280000C9170000150E00007A
S1130D50B00100203D0100002D1E0000150100001F
S1130D6010B5C479021C03681C20002C00D110BDEE
S1130D70D28D1738002AFAD1DA69002AFCD11985F4
S1130D8002211A7E1142FCD00020F0E710B58279CE
S1130D90031C04681C20002A00D110BD9B8D173849
S1130DA0002BFAD1237E5B07F7D5E369002BFCD136
S1130DB0638BDBB29A0605D002221A4206D0628304
S1130DC01A20EAE7238D00200B80E6E704221A426A
S1130DD002D062831E20E0E701221A4202D062831D
S1130DE01320DAE71022134202D062834220D4E7B0
S1130DF020221342E6D062834120CEE7931C9B005D
S1130E00C31859600123934030211A1C435C1A43D0
S1130E1042547047F8B5624B8000C5582C68E369AA
S1130E20002BFCD1267EA37D30221E403123AF5CF3
S1130E30EB5C1F400123334219D0EA8D002A4DD0C8
S1130E40AA6A511C1378A9626979DBB2012900D11D
S1130E5075E09BB2DB05DB0D2385EB8D013B9BB27B
S1130E60EB85002B03D1013323750133A3750223D2
S1130E70334205D0002223753133EA54FB073BD4B7
S1130E800423334212D0AA8D002A25D0638BDBB20F
S1130E901A0735D43F22134035D002221A4254D0C7
S1130EA01A213223E95462837B0759D41023334235
S1130EB003D0237523763B4216D12023334203D03B
S1130EC0237523763B0713D40823334203D02375B9
S1130ED02376BB0604D4F8BD2375E7E72375C6E77C
S1130EE02B6A281C9847F6E7281CEB699847E4E727
S1130EF0281CAB699847E7E7281CEB689847BFE7CD
S1130F0037221340C9D1238D696ADB05DB0DDAB2C0
S1130F100A706A6A511C69626979012929D0AB8D0A
S1130F20013B9BB2AB85002BC0D1042222752E322B
S1130F30AB54BB07BAD5281C2B699847B6E7517840
S1130F40023209020B43AA6284E704221A420BD13B
S1130F5001221A4213D013213223E9546283A3E7F6
S1130F60281C6B699847A1E71E213223E954628348
S1130F709AE71B0A53706B6A01336B62CFE7102246
S1130F801A4204D042213223E95462838CE720229E
S1130F901A4200D188E741213223E954628383E76E
S1130FA0B001002070B582B000236A46051C0E1CF7
S1130FB00468D380E369002BFCD1022223689343A5
S1130FC023602868C369002BFCD1124B9847143066
S1130FD0114BC0B298476B46011C9A1D301C0F4B35
S1130FE098471723002802D0181C02B070BD6B4626
S1130FF09B7923732B68DA69002AFCD1DA69002A09
S1131000FCD1196802320A431A602A68D369002B9A
S1131010FCD1E9E7D10400002D1E000015010000F9
S1131020F0B556464D4644465F46F0B4051C29606B
S11310300B6887B00E1C141C9B070CD401270B688B
S113104005201F4200D1C6E007B03CBC904699463B
S1131050A246AB46F0BD936A02AF0293D36A906A8C
S11310607B60136BBB60536BFB60002800D1A3E073
S1131070431C1CD00104000C090CC3B2020600D5A9
S1131080A4E01F2018408446D2485A098046D20161
S113109042449246604650444030027801208046E3
S11310A0104200D085E18022914200D05BE1786853
S11310B0002800D185E0431C1CD00104000C090C5D
S11310C0C3B2020600D581E01F2018408446C148FF
S11310D05A098046D2014244924660465044403008
S11310E0027801208046104200D087E1802291429C
S11310F000D038E1B868002800D149E1431C1BD076
S11311000104000C090CC3B202065FD41F2018406E
S11311108446B0485A098046D20142449246604609
S113112050444030027801208046104200D076E1DD
S11311308022914200D016E1F868002800D12CE109
S1131140431C1ED00104000C090CC3B202063DD49A
S1131150A04F1F20BC465A09D20162441840814660
S1131160171C4F4440373F789246B8460127BC4687
S1131170404662467F37024200D075E1B94200D052
S1131180F1E0954B132098472378011C012B00D1E3
S113119077E11A1C00239C46002A00D0BFE0E07FC0
S11311A0A369A77F3168000498463843A38B88421B
S11311B000D145E11C2047E7081C884B00219847D3
S11311C056E7301C0121854B984774E71F221340D2
S11311D040331B78FFDE081C814B9847811C8F40ED
S11311E0804A1430136A69461F43242317626A46EF
S11311F09846E35CC7B21370381C7B4B9847381C85
S11312007A4B984743460021E05C794B9847237812
S1131210012B00D122E1002B00D0A8E00822316884
S11312200A43326029682278894601A988468021C8
S113123040460170012143708170C370002A00D1BF
S11312408370A36A02AF0293E36A00267B60236B78
S1131250BB60636BFB60614B9B46664B9A46B30075
S1131260F858F1B2002857D0431C05D043461870F3
S1131270000CC0B24146D0470136042EEFD123788A
S11312806A466B71237CAB71A37CEB71237D2B725B
S1131290002353802378012B00D105E1002B74D166
S11312A04A46E17FA57F506A090429430143A669A0
S11312B0A38B51622022A25C002A77D16168A268C4
S11312C00A43E1680A43217C32430B43617C0029D1
S11312D01FD14949897889071BD4A17C002902D0F0
S11312E0802189020B43E17C002902D080218900FE
S11312F00B43217D002902D0802189010B434946FB
S1131300096800200A4349460A604A6813434B604F
S11313109AE680210A43E0E74846D847A4E7002339
S11313206068A1680143E068014360460143207C92
S11313300343607C002801D080200143A07C002866
S113134002D0802080020343E07C002802D0802069
S113135080000343207D002824D102203768014304
S1131360B94200D1B8E000231C202B606CE62B6846
S1131370994601AB984680234246137000234146A8
S113138053700122CB708A705BE70023002695E737
S1131390301C0221114B9847B0E6301C03210F4B3F
S11313A09847CDE6802080010343D6E740210B43D4
S11313B084E760464008021C524430321078C2B2BE
S11313C0404694461209184200D06DE60F22634647
S11313D01A4069E6004400412D1E0000710300001C
S11313E0D104000000040040991D0000FD1D000010
S11313F029030000D11E000000200041604640087F
S1131400021C524430321078C2B24046944612094B
S1131410184200D06BE60F2263461A4067E6604626
S11314204008021C524430321078C2B240469446FE
S11314301209184200D07CE60F2263461A4078E66F
S11314402021615C002901D040200343082140464B
S11314500843011C60460843844661E732680B3345
S1131460134333602378D6E64A465008021C52449C
S1131470303217786246FFB21A4236D10F231F402A
S11314807CE61B4BA06901AA9847031C1720002B7C
S113149000D0D9E56A46337B12799A4200D089E6B6
S11314A00C2322789C4677E6124B28689847143020
S11314B0114BC0B298476B46011C9A1CA0690C4B97
S11314C09847031C1720002B00D0BDE56B464A4605
S11314D09B7813732378E1E67168994200D042E760
S11314E06A71237C0020AB71AEE53F0946E6C04635
S11314F015010000D10400002D1E000030B5447910
S1131500031C1520012C00D030BD187A002822D1EC
S1131510002A22D04A78002A11D01A68127E22406A
S11315202DD10B78D90926D11F315A090B409C4083
S1131530D301274A0520944663449C61E4E70B7871
S1131540D9091AD11F315A090B409C40D301214AB1
S1131550944663445C600020D6E70B78D9090AD12D
S11315601F315A090B409C40D301194A002094466C
S113157063449C61C8E79261FFDE5261FFDE0A7832
S1131580D50923D11F3550092A40251C95402A1C12
S1131590104DC001AC46604442601A688978107EE0
S11315A0044200D09162DA79002AD4D10424196863
S11315B00A7E04201442FBD00A7E1042CBD04A8B10
S11315C0104200D048838B6A00209DE74061FFDE13
S11315D00044004110440041F0B544465F4656467D
S11315E04D46F0B4884685B01723002A07D1181C4D
S11315F005B03CBC90469946A246AB46F0BD437943
S11316009C46002B07D1022103681C7E214202D094
S1131610197643799C460221131C0292674A8A4632
S113162002319146002501228B466746013B9EB25A
S11316304E452FD00368002F0FD1614902E00139D4
S1131640002902D01C7E2242F9D05446197E0C4255
S113165000D090E0197E0A4245D0197E0A42FCD09F
S11316604146495D6C1C01918179A4B2012932D0B3
S11316706946251C89881C7E224203D0C905C90DF0
S113168099624779C179731E9CB2002933D1261E11
S11316904E45CFD1029A012F00D183E0002F18D1FB
S11316A0C379002B15D00425002A12D00468444BBA
S11316B002E0013B002B02D0217E0D42F9D0237EB3
S11316C01D4210D0237E1D420FD1013A92B2002A4E
S11316D0ECD100238BE741460C5D019902352402CD
S11316E0ADB22143C7E7122381E7638B1D4200D0CB
S11316F06583A36AE9E7002F0ED004685F46217E64
S113170004260F42FAD0217E0E4245D102990139B6
S113171089B2029147798AE744460168284B0394C9
S113172012E06C466546A4880F7E3A4203D0E40575
S1131730E40D8C620168013EB6B25F460C7E27421E
S11317401DD1013B002B1AD0002EF6D00C7E224274
S1131750F3D06C1CA4B2A446039C645D0194877905
S1131760012FDED16746039C0235E75D019C3F02F1
S1131770ADB23C43D8E702221A76042337E7574632
S1131780039B0C1C98460B7E1F4212D10B7E5946BC
S11317901942A8D0731EB1E7618B0F4200D0668353
S11317A0A16AB3E7022201680B7E1A42FCD000232F
S11317B01DE702230B76023319E7C046FFFF000042
S11317C0112700007047C04630B50C4D0C4B2A78E9
S11317D0002A0FD10B4C1C605C609C60DC601C61B7
S11317E05C61094C22606260A260E2602261626115
S11317F001222A708000195030BDC0462801002003
S11318002C010020C5170000B001002010B5041CF5
S113181082B0064906226846054B9847201C054BB2
S113182098476B46185602B010BDC046743200008B
S1131830F9270000D104000008B5024B00201B6802
S1131840984708BD2C01002008B5024B01205B68B5
S1131850984708BD2C01002008B5024B02209B6864
S1131860984708BD2C01002008B5024B0320DB6813
S1131870984708BD2C01002008B5024B04201B69C1
S1131880984708BD2C01002008B5024B05205B6970
S1131890984708BD2C0100200B4B1A68002A05D17B
S11318A0EFF31081002905D008490A701A68013243
S11318B01A60704772B6BFF35F8F054A1170034A0E
S11318C001311170F2E7C0464401002048010020B4
S11318D004000020084B1A68013A1A601B68002BA8
S11318E009D1064B1B78002B05D00122044B1A703A
S11318F0BFF35F8F62B670474401002048010020A7
S113190004000020F0B50125002783B001AC211CA0
S1131910084E3E206570A7702570B0478022064BA4
S1131920D2059A610F20211C27706570B04703B05F
S1131930F0BDC0463D19000080440041802200B53E
S113194083B001AB1A700A785A704A789A708A7810
S1131950191CDA70014B984703B000BDD11E00007A
S113196010B508282CD81B4B80001B589F4680209C
S1131970000210BD184B5869FBE7184B186A184B46
S11319808005800FC340181CF3E70220124C236823
S11319901840EED010221149CB681A42FCD02368BB
S11319A05B070FD40F48E4E70B4B1869E1E75023BA
S11319B00A4A0020D35C5B07DBD5074BD868D8E71D
S11319C00020D6E7084B00209847A3681B041B0C93
S11319D05843CEE77C3200004C0100200008004050
S11319E000127A00006CDC022D1E0000F0B55F4688
S11319F056464D464446F0B42E4E83B0B38A4578DD
S1131A009C460378477B5A425A419146027983782F
S1131A109046027B9B46C3780192847B8268264869
S1131A2042614A46920091460422924662465146D9
S1131A308A4394464A4661460A43012094464246F4
S1131A400240D200904608229146624649468A43A3
S1131A509446424661460A439446102290466246A2
S1131A60414603408A431B01594613432022014047
S1131A70490193430B434021019A8B430240920155
S1131A80134380220740FF0193433B43793A0B4FB2
S1131A901540044020032D023B40094C2B431C40BD
S1131AA00443B48203B03CBC90469946A246AB467C
S1131AB0F0BDC046000800404C010020FFF8FFFFC5
S1131AC0FFEFFFFF30B5037A1B499B061A0C4389CD
S1131AD09B059B0D13434B604388848882791C4388
S1131AE0C379134342782343D20113430B60037831
S1131AF0042B11D0202B0ED1037B028A9B061343A7
S1131B001C1CC3890D4A1B04134023438B600B68C0
S1131B100B4A13430B6030BD027B058A92062A43AD
S1131B20141CC28905481204024022438A600A68D0
S1131B3013430B60EFE7C0464C0100200000FF0395
S1131B402404000010B5082845D8244B80001B58F5
S1131B509F46002010BD0223214A002091690B43B7
S1131B609361F7E702231E4A0020918A0B43938274
S1131B70F0E702231A4A0020116A0B431362E9E7D3
S1131B8002221020174C16492368134323608A84C9
S1131B90CA68134B1042FBD0A2681021DA62626853
S1131BA09A6200229A84DA681142FCD023680C4AB3
S1131BB09BB293840020CDE7442202230849885C29
S1131BC003438B540020C5E70223054A0020118AF1
S1131BD00B431382BEE71720BCE7C046A0320000C7
S1131BE0000800404C010020C2221E2170B51C4B8D
S1131BF0D2009A601B4A0024536884B08B4353601C
S1131C00012301AD184E2B70E0B2291C0134B047FA
S1131C10252CF9D14021124B1A6A8A4340310A43D8
S1131C2012490A401A620222196A0A431A62104BC4
S1131C30984700230F4A291C137253729372D3726C
S1131C4001226B706A602B7205326B7200200A4BA2
S1131C502A7098470020094B984704B070BDC046CD
S1131C600008004000400041991D0000FFFCFFFFF8
S1131C70811C000000040040A51C0000551D00004C
S1131C800823064A91690B43936101230121044A05
S1131C90137013781942FCD17047C0460004004009
S1131CA0000C004070B50D784B782D02061C041C06
S1131CB00543002B02D08023DB021D434B7A002B0B
S1131CC002D080231B031D43486801280FD9431EFB
S1131CD0034031D1022805D0022201335200904240
S1131CE0FBD81B0233431C1C80235B031D430B7A6C
S1131CF0002B02D080239B031D43124A53785BB20E
S1131D00002BFBDB104B9847104B0E491E704A7892
S1131D100C4B52B2002AFADB1A1C9C605378094916
S1131D205BB2002BFADB80234A685B0213401D433D
S1131D304D60074B984770BD802304029B023443D7
S1131D401D43D4E7000C004099180000080C004023
S1131D50D518000010B5041C0B4A53785BB2002B55
S1131D60FBDB0A4B98470A4B07491C704B78064A21
S1131D705BB2002BFADB8021536849020B435360AA
S1131D80044B984710BDC046000C00409918000051
S1131D90040C0040D518000038B5041C0D78114B14
S1131DA02D0205439847104B104A1C705088104B65
S1131DB0518800050B40538051880E4B000F0B4097
S1131DC080215380C9015388084C0B42FBD16188A0
S1131DD0074B02020B4013436380ADB2064B984796
S1131DE0658038BD99180000020C0040000C0040CA
S1131DF0FFF0FFFFFFBFFFFFD518000010B5041C64
S1131E00064B98478021064B064A1C705388C9012B
S1131E100B435380044B984710BDC04699180000EB
S1131E20020C0040000C0040D5180000F0B54746F5
S1131E30041C80B41E4EB0471E4B1C701E4C1F4B1E
S1131E40658898462D052D0F984763785BB2002B63
S1131E50FBDBB0471A4B184A1D705378164C5BB223
S1131E60002BFADB6068174BC004C00E9847071CB0
S1131E70134B1D706668144BF602F60F1D706378E1
S1131E805BB2002BFBDB0C4B9968090A8CB2C04790
S1131E90002E05D0611CCF40381C04BC9046F0BD18
S1131EA0012CF9D9381C211C084B9847071CF3E76F
S1131EB099180000020C0040000C0040D5180000E6
S1131EC0040C004061190000080C00403526000095
S1131ED070B5C2090023002A04D12F4A430994464D
S1131EE0DB0163441F2210401E3A8240101CCA7852
S1131EF0002A31D10C78802C47D08022240652024B
S1131F0014434A780225161CAE4307D18A78002A66
S1131F1037D180229202144358604A78013A012A48
S1131F2035D9A0250204ED05120C2A43D0252243FD
S1131F309A622D06020C2A4322439A62CA78002A26
S1131F4009D1620303D58A78012A23D058614A78DB
S1131F50013A012A13D970BDA0240204E405120C2D
S1131F602243D024586024069A62020C22439A62C7
S1131F70CA78002AEFD14A78013A012AEBD898604E
S1131F80E9E7C022D2021443C6E70024B9E7034AB2
S1131F901440C6E79861DAE700440041FFFFFBFF05
S1131FA07047C04608B5054B9847054B9847054B05
S1131FB09847054B9847054B984708BDE91B000017
S1131FC005190000A11F0000A11F0000A11F0000AF
S1131FD0FEE7C0462549264870B5814209D0254B05
S1131FE0984206D2C243D218920801329200224B80
S1131FF098472248224B984207D2C243D2189208EB
S11320000132920000211F4B9847FF211E4B1F4AAB
S11320108B43936090231E4AFD395B000324D15007
S113202002220C26082130251A48C378A3431343FF
S1132030C370C378B3430B43C370174B987BA84357
S1132040051C202028439873987BB043014399735F
S1132050997BA1430A439A738023104A51680B4326
S113206053600F4B98470F4B9847FEE780330000AF
S1132070000000206C000020F92700006C00002004
S1132080680200200B2800000000000000ED00E0C2
S113209000700041005000410048004100400041F0
S11320A0AD27000005250000044A1368002B03D067
S11320B018181060181C7047014BF9E764010020E0
S11320C068220020012040427047C04680239B01C3
S11320D000204B607047C0460120704700207047C5
S11320E0F0B583B06B469C1D0023061C0F1C054DE8
S11320F02380301C211CA8470028FAD123883B7078
S113210003B0F0BD8D0D000070B5061C034D8CB2FC
S1132110301C211CA8470028FAD170BD610D0000B5
S1132120002310B582B00193094B0021186801AA5D
S11321300023084CA047019B002B03D08022064BB0
S113214052051A60054B0648984702B010BDC046B8
S1132150500200204D07000004ED00E0DD280000DF
S1132160C43200000023F0B500250126072787B0FC
S113217001AC23706380A3803F336381393B2382A6
S1132180201C0E4BA571E571667027722673E681DB
S113219098470B4B072098471E220A4900204B689A
S11321A093431A3A13434B60211C074B66606570D6
S11321B0257265722770984707B0F0BDC51A0000F4
S11321C0451B000000400041A51C000000B585B07F
S11321D000236A46137093708022120202926A46A8
S11321E06946D37001220B738B7303334B706846BB
S11321F0024B0A714A73984705B000BDED190000FF
S1132200012300B585B001A94B60002306224B7061
S11322100B724B720220044B0A7098470220034B46
S1132220984705B000BDC046A51C0000551D000020
S1132230022300B583B001A90B701B20034B984700
S11322401B20034B984703B000BDC046991D0000F6
S1132250FD1D0000802330B5DB0591B06946FF22E7
S11322600093002368460A818B72CB7224220121D9
S11322708154013281540132835401328354053232
S1132280835401930A930593038213238376E123F2
S11322905B02089380235B030393174B00220C9388
S11322A0164BC2760D9301235B4202764276427747
S11322B00E930F9302222D23114C124D0177C25419
S11322C0201C11496A46A8470028F9D125680F4BFC
S11322D0281C98471F2318401E3B8340181C0C4B96
S11322E018602268D369002BFCD12A680233134397
S11322F02B6011B030BDC046020010000200110076
S1132300DC010020390A0000000C00420D18000016
S113231000E100E010B5064C0649201C0522064BDE
S1132320984731222023A15C0B43A35410BDC0461F
S1132330DC01002021210000FD0D0000F0B591B06A
S11323406946FF2280230A8101242422DB050093AD
S113235000238C5401328C5401328B5401328B543F
S113236005328B548B72CB720B8201930A930593C3
S113237013238B76E1235B020893802300225B0303
S113238003931D4BCA760C931C4B0A760D930123C1
S11323900A774A764A7702225B420E930F932E33D2
S11323A0174DCA54174B184A1D60184B18491A6028
S11323B0184A194B281C1A606A46184B9847184F3C
S11323C0184E3B6800219868B0473B680021586864
S11323D0B0472E68144B301C98471F231840844084
S11323E0124B1C602A68D369002BFCD1326802337B
S11323F01343336011B0F0BD020016000200170051
S113240010020020AC01002009210000A8010020D6
S113241000140042E1200000A4010020390A000059
S113242068000020F12800000D18000000E100E021
S1132430282370B5274E8EB00024337001256B46D7
S113244028205D709C701D706946234B7470B470B5
S113245098473278D3093AD11F2051090240281CE9
S11324609040021C1D48C901844661448A616A4641
S1132470694613745374137515709574D5742422B6
S113248001938B54029307930893154B154C0693B1
S113249080235B020393144B6A460A9301235B4235
S11324A00B93124B201C0C93114B12490D93124B9E
S11324B098472268D369002BFCD1116802330B437F
S11324C01360201C0D490E4B98470EB070BDA461DB
S11324D0FFDEC046600200203D19000000440041B8
S11324E0A08601005402002003000400030006003B
S11324F0030007000008004221100000002D3101F4
S1132500A50F0000F0B54D465F4656464446F0B46C
S1132510012583B0314B9847314B9847314B052007
S11325209847314B9847314B9847314B9847314B3B
S11325309847314B9847314B9847314B1D70BFF347
S11325405F8F62B62F4B98472F4B30489847022332
S11325502F4C304F63703033A3602F4B2570994656
S113256000234A462D4DB8462D4F1360AB4632200A
S113257000223233002101AE2A4DBA4624E0C023A2
S113258000219B015F4639800021824200DA511C00
S11325901A0A6160327073704146234B0122281C71
S11325A09847311C0222281CD047414600221E4B6A
S11325B0281C98474B461B68A0685A00D3189B00F8
S11325C0E318596862689B68DF0FBC4663445B107C
S11325D08B42D4DB154B1649D4E7C046A51F000037
S11325E0CD210000451B00006521000001220000F0
S11325F031220000552200003D2300001523000075
S11326000400002031240000DD280000E83200002E
S11326106C01002060020020D40100206801002029
S1132620D915000054020020FD140000FE370000FC
S1132630FF030000002243088B4274D303098B423A
S11326405FD3030A8B4244D3030B8B4228D3030C7E
S11326508B420DD3FF22090212BA030C8B4202D320
S11326601212090265D0030B8B4219D300E0090A48
S1132670C30B8B4201D3CB03C01A5241830B8B4251
S113268001D38B03C01A5241430B8B4201D34B033A
S1132690C01A5241030B8B4201D30B03C01A52419F
S11326A0C30A8B4201D3CB02C01A5241830A8B4224
S11326B001D38B02C01A5241430A8B4201D34B020D
S11326C0C01A5241030A8B4201D30B02C01A524171
S11326D0CDD2C3098B4201D3CB01C01A5241830925
S11326E08B4201D38B01C01A524143098B4201D35F
S11326F04B01C01A524103098B4201D30B01C01A8A
S11327005241C3088B4201D3CB00C01A5241830803
S11327108B4201D38B00C01A524143088B4201D330
S11327204B00C01A5241411A00D201465241104690
S11327307047FFE701B5002000F00CF802BDC04669
S11327400029F7D003B5FFF775FF0EBC4243891A81
S11327501847C0467047C046F0B54F464646050484
S11327602D0C2C1CC0B41704160C3F0C9946030CFA
S11327707C4375435F4373437D19260CAD199C4616
S1132780AF4203D980235B029846C4444B4651436D
S1132790434324042E0C240C2D0466442C1959188C
S11327A08919201C0CBC90469946F0BD0E4B70B59F
S11327B000251E1C0D4CE41AA410A54204D0AB0045
S11327C0F35898470135F8E700F0CAFD084B002597
S11327D01E1C084CE41AA410A54204D0AB00F35804
S11327E098470135F8E770BD6C3300006C33000086
S11327F06C33000070330000002310B5934203D003
S1132800CC5CC4540133F9E710BD031C8218934215
S113281002D019700133FAE7704770B5051C0E1C1D
S1132820002804D08369002B01D100F0B5FAAC680C
S1132830A3891B0702D52369002B19D1281C211C4D
S113284000F03EF9002813D00120404245E03178E1
S1132850002B1BDAA269934211DA221C281C00F017
S1132860D7F8013042424241D0B20028ECD10136BF
S1132870A3683278013BA360002AE8D10CE0236806
S11328801970236819780A2903D1E6E723681970B7
S1132890236801332360EAE7002B17DAA269934225
S11328A008DB0A2322681370236819780A2911D1D6
S11328B0281C01E0281C0A21221C00F0A9F8013080
S11328C042424241D0B2002806D0BDE70A23226822
S11328D013702368013323600A2070BD08B5034BCD
S11328E0011C1868FFF799FF08BDC0466800002066
S11328F008B54A424A4180235200DB0000F002F846
S113290008BD0000F7B51E1C3C4B041C1D680F1CC1
S11329100192002D05D0AB69002B02D1281C00F0D8
S11329203BFA374B9C4201D16C6808E0354B9C4222
S113293001D1AC6803E0344B9C4200D1EC68019BAC
S1132940022B58D8002E56DB281C211C00F0B6F9A7
S113295000236360A361A3891B0603D5281C216996
S113296000F00EFB8322A3899343A381019B022BD6
S113297013D0002F25D1002E01D18026F600301C63
S113298000F0F4FA071E18D18020C00000F0EEFA1F
S1132990071E10D10120404200E000200222A3893A
S11329A01343A3810023A360231C473323602361C3
S11329B00123636121E08026F6008022A38913436A
S11329C0A381019B012B05D1A389019A1A43734268
S11329D0A281A3610D4B0020AB62A289276027610D
S11329E06661130709D503231A40534253415B42DE
S11329F01E40A66001E001204042FEBD68000020A8
S1132A00003300002033000040330000152D000087
S1132A1070B5051C0E1C141C002804D08369002BFF
S1132A2001D100F0B9F9234B9C4201D16C6808E054
S1132A30214B9C4201D1AC6803E0204B9C4200D165
S1132A40EC68A369A360A3891B070AD52369002B3B
S1132A5007D023682269F6B2981A636998420FDB9B
S1132A6008E0281C211C00F02BF80028F1D00120DC
S1132A7040421DE0281C211C00F020F90028F6D15A
S1132A80A3680130013BA36023685A1C22601E70B6
S1132A906369984205D0A389301CDB0708D50A2E48
S1132AA006D1281C211C00F009F90028DFD1301CB4
S1132AB070BDC046003300002033000040330000E6
S1132AC0354B70B51D68061C0C1C002D05D0AB6978
S1132AD0002B02D1281C00F05FF9304B9C4201D13D
S1132AE06C6808E02E4B9C4201D1AC6803E02D4B8E
S1132AF09C4200D1EC68A3899AB2110723D4D10671
S1132B0007D409220120326037321343A3814042A3
S1132B1040E0530713D5616B002908D0231C4433CC
S1132B20994202D0301C00F02BFA00236363242264
S1132B30A3899343A381002363602369236008224C
S1132B40A3891343A3812369002B0BD1A023A2895A
S1132B509B00134080229200934203D0301C211C1E
S1132B6000F0ACF90123A289134005D00023A3602F
S1132B7063695B42A36103E0910700D46369A360C6
S1132B8000202369834205D1130603D540231A4349
S1132B90A281013870BDC0466800002000330000E7
S1132BA02033000040330000F7B58A89051C0C1C53
S1132BB013075ED44B68002B02DC0B6C002B1ADD70
S1132BC0E76A002F17D000232E682B6080235B0157
S1132BD01A4001D0626D15E0281C216A0123B84710
S1132BE0021C431C0ED12B68002B0BD01D2B01D0D3
S1132BF0162B02D12E6000205EE04021A3890B43F6
S1132C00A38159E0A3895B0706D56368D21A636B75
S1132C10002B01D0236CD21A0023281C216AE76AF6
S1132C20B847A389421C06D12A68002A03D01D2A6A
S1132C3001D0162A19D10022626022692260DB04C5
S1132C4005D5431C02D12B68002B00D16065616B54
S1132C502E600029CFD0231C4433994202D0281C73
S1132C6000F08EF90020606326E040221343A38124
S1132C7022E00F69002FBED00B680F60DB1B0193AD
S1132C800023920700D14B69A360019B002BB2DDA6
S1132C90281C216A3A1C019BA66AB047002806DC5E
S1132CA040220120A38940421343A38104E0019BF5
S1132CB03F181B1A0193E8E7FEBD000038B50B6905
S1132CC0051C0C1C002B01D100201CE0002804D0A2
S1132CD08369002B01D100F05FF80B4B9C4201D1BA
S1132CE06C6808E0094B9C4201D1AC6803E0084BD6
S1132CF09C4200D1EC680C22A35E002BE4D0281C7B
S1132D00211CFFF751FF38BD0033000020330000C1
S1132D104033000008B5024900F0AEF808BDC046D3
S1132D20BD2C0000002310B5041C036043608360C5
S1132D3081814366C281036143618361191C082256
S1132D405C30FFF762FD054B24626362044BA362AF
S1132D50044BE362044B236310BDC046E130000022
S1132D6009310000413100006D31000070B5682563
S1132D704B1E5D430E1C291C743100F047F9041EE0
S1132D8008D000212A1C016046600C30A060683223
S1132D90FFF73BFD201C70BD836913B5002B28D1C0
S1132DA08364C3640365134B134A1B6882620193F3
S1132DB0984201D101238361041C00F01FF8606074
S1132DC0201C00F01BF8A060201C00F017F8042160
S1132DD0E06000226068FFF7A5FFA06809210122D6
S1132DE0FFF7A0FFE06812210222FFF79BFF0123F7
S1132DF0A36113BDFC320000152D0000F8B51D4B76
S1132E00061C1D68AB69002B02D1281CFFF7C4FF08
S1132E104835AC686B68013B05D40C22A75E002FD3
S1132E2010D06834F7E72B68002B06D1301C04213E
S1132E30FFF79CFF2860002801D02D68E9E70C23E8
S1132E40336016E00123201C5B42E3810233A3813B
S1132E5067662760A760676027616761A7615C3068
S1132E60391C0822FFF7D1FC201C6763A763A76401
S1132E70E764F8BDFC320000F7B5041C071C00260B
S1132E8001914834002C16D06368A5680093009B18
S1132E90013B00930DD4AB89012B08D90E22AB5E04
S1132EA0013304D0381C291C019B9847064368351C
S1132EB0EDE72468E6E7301CFEBD0000F0B58B8921
S1132EC091B09B0706D50B1C47330B600B610123A4
S1132ED04B6145E00C1C0E23C95E061C002904DA74
S1132EE08023A5891D4010D10CE001AA00F06AF9E5
S1132EF00028F5DBF023029D1B021D40194BED1841
S1132F006B425D418027FF0001E000254027301C13
S1132F10391C00F07BF800280CD1A3899A051FD432
S1132F2002221343A381231C47332360236101231B
S1132F30636115E080220C4BB362A38920601343C4
S1132F40A38120616761002D0AD00E23E15E301C4D
S1132F5000F04AF9002803D00122A3891343A38176
S1132F6011B0F0BD00E0FFFF152D000008B5034BC4
S1132F70011C186800F04AF808BDC046680000202B
S1132F8030B500293ED004390B68002B00DAC9188B
S1132F901D4A1368141C002B02D14B60116031E0F0
S1132FA099420DD208680A189A4203D11368C318CB
S1132FB00B6053684B60216024E08A4203D8131CE1
S1132FC05A68002AF9D11D685C198C420BD1096832
S1132FD0691858181960904214D110685268091879
S1132FE019605A600EE08C4202D90C23036009E098
S1132FF008680C18944203D11468526800190860D8
S11330004A60596030BDC046A0010020032370B55A
S1133010CC1C9C430834051C0C2C01D20C2405E068
S1133020002C03DA0C2300202B6042E08C42F9D3FD
S1133030204A1368101C191C002913D00A68121B9B
S11330400DD40B2A02D90A608B181FE08B4202D1DF
S11330505A6802601BE04A685A600B1C17E00B1C9C
S11330604968E9E7144E3368002B03D1281C00F0AB
S113307025F83060281C211C00F020F8031C421C99
S1133080D0D00322C61C964386420AD11C60181C69
S113309007210B301A1D8843821A0AD051429950D5
S11330A007E0311A281C00F009F8431CBAD0331C7D
S11330B0ECE770BDA00100209C01002038B500237E
S11330C0064C051C081C2360FEF7EEFF431C03D1CD
S11330D02368002B00D02B6038BDC046640200205A
S11330E038B50C1C0E25495F00F0A4F8002803DB5A
S11330F0636D1B18636503E0A289024B1340A3812F
S113310038BDC046FFEFFFFFF8B51E1C8B89051CB8
S11331100C1C171CDB0505D50E23C95E00220223F7
S113312000F074F8A289054B281C1340A3813A1CB3
S11331300E23E15E331C00F01FF8F8BDFFEFFFFF24
S113314038B50C1C0E25495F00F060F8A389421CB9
S113315003D1054A1340A38104E0802252011343A2
S1133160A381606538BDC046FFEFFFFF08B50E239D
S1133170C95E00F015F808BD38B5051C0020074CE1
S11331802060081C111C1A1CFDF7F6F9431C03D11E
S11331902368002B00D02B6038BDC0466402002099
S11331A038B50023064C051C081C2360FEF78AFF73
S11331B0431C03D12368002B00D02B6038BDC046CC
S11331C06402002038B50023064C051C081C111CA1
S11331D02360FEF77BFF431C03D12368002B00D040
S11331E02B6038BD6402002038B50023064C051C52
S11331F0081C2360FEF770FF431C03D12368002BD7
S113320000D02B6038BDC0466402002038B5051CD0
S11332100020074C2060081C111C1A1CFEF75EFFDE
S1133220431C03D12368002B00D02B6038BDC0465B
S11332306402002038B5051C0020074C2060081CDF
S1133240111C1A1CFDF776F9431C03D12368002BCB
S113325000D02B6038BDC046640200200008004244
S1133260000C00420010004200140042001800420A
S1133270001C0042090A0B0C0D0E0000A8190000E6
S1133280C0190000C01900006E1900006E1900007A
S1133290741900007A1900008A190000AE190000A0
S11332A0C81B0000D61B0000D61B0000521B0000E8
S11332B0561B0000641B0000721B0000801B0000F2
S11332C0B81B0000496E74657272757074202D20ED
S11332D053656D6170686F72652067656E657261B4
S11332E07465642E0D00000050524F4752414D202A
S11332F05354415254210D004300000008000020A3
S113330000000000000000000000000000000000B9
S113331000000000000000000000000000000000A9
S11333200000000000000000000000000000000099
S11333300000000000000000000000000000000089
S11333400000000000000000000000000000000079
S11333500000000000000000000000000000000069
S1133360F8B5C046F8BC08BC9E467047DD000000B6
S1133370F8B5C046F8BC08BC9E467047B5000000CE
S1133380FFFFFFFF01000000000000000033000009
S11333902033000040330000000000000000000063
S11333A00000000000000000F832000000000000EF
S11333B00000000000000000000000000000000009
S11333C000000000000000000000000000000000F9
S11333D000000000000000000000000000000000E9
S10F33E0000000000000000008000020B5
S9031FD508
