:1000000068220020851E0000811E0000811E000065
:1000100000000000000000000000000000000000E0
:10002000000000000000000000000000A905000022
:100030000000000000000000D105000015060000CF
:10004000811E0000811E0000811E0000811E000034
:10005000811E0000811E0000811E0000811E000024
:10006000811E00005D1600006D1600007D16000068
:100070008D1600009D160000AD160000811E0000C8
:10008000811E0000811E0000811E0000811E0000F4
:10009000811E0000811E0000811E0000811E0000E4
:1000A000811E0000811E0000811E0000811E0000D4
:1000B0000000000010B5064C2378002B07D1054B3B
:1000C000002B02D0044800E000BF0123237010BDC4
:1000D0006C00002000000000743E000008B5084BD2
:1000E000002B03D00748084900E000BF0748036819
:1000F000002B00D108BD064B002BFBD09847F9E739
:1001000000000000743E000070000020743E0000FB
:100110000000000010B54908402481420CD30023A0
:10012000091A01339BB28842FAD9013B9BB24024A1
:10013000FF2B01D813800024201C10BDF0B55F46B2
:1001400056464D464446F0B489B01C1C12AB1B7891
:10015000061C5E4340258E4200D9C7E0251C07924D
:100160000C1C021C002D51D1181C00210023634DD2
:10017000A8478346261C00270023002402930394EB
:10018000002200233F2020218C461F390096019732
:1001900020246442041903D40D1CA540A84604E0A1
:1001A0006446241A0D1CE540A8460C1C8440A14658
:1001B000141C1D1CA4185D41221C2B1C5E464746C6
:1001C0003E4203D00E1C2643321C2B1C019C9C4239
:1001D00010D802D1009C94420CD8009C019D121BA7
:1001E000AB414D46029E039F35433C1C464634437B
:1001F000029503940138CBD200220123029803997F
:10020000121A8B41110C1B0419436CE00021012DC3
:1002100069D1610F0F1CE1008846181C00210023E2
:10022000364CA047041C0D1C00239C4620339B46E3
:10023000012663460593B9466B461B7D0693002352
:100240009C46002000213F220094019520235B4220
:10025000D31803D4341C9C40231C04E05B469B1A37
:10026000341CDC40231C371C9740041C0D1C241834
:100270004D41201C291C0290039144463C40A2465B
:100280004C4623405446234305D0029B039C1D1C2F
:100290003543281C211C019B8B420AD802D1009BAC
:1002A000834206D8009B019CC01AA14163463B4390
:1002B0009C46013ACAD2009C019D62460599531A98
:1002C000DB080F4A934208D9069A0132D2B206924D
:1002D0000A1C01320592082AAED14025069A082A46
:1002E00004D051031943079B19800025281C09B02D
:1002F0003CBC90469946A246AB46F0BD992600000C
:10030000FF1F000010B582B0041C0E4B1B78002BA1
:1003100001D000290DD001A90C7013200A4B984779
:1003200013200A4B9847074B5C7001221A7000207B
:1003300006E0044B5B78834201D01D2000E00020E2
:1003400002B010BD88000020291D00009D1C000087
:10035000444B984233D006D8434B98420DD0434B80
:1003600098421BD06FE0424B98424AD0414B984292
:1003700058D0414B984266D132E0012906D000297D
:1003800063D0022906D0032906D001E03B4867E08C
:10039000002065E03A4863E03A4861E0012906D070
:1003A000002954D0022906D0032906D001E036489E
:1003B00056E0002054E0354852E0354850E001292D
:1003C00006D0002945D0022906D0032906D001E035
:1003D000304845E0002043E02F4841E02F483FE00F
:1003E000012906D0002936D0022906D0032906D0DB
:1003F00001E02B4834E0002032E02A4830E02A486F
:100400002EE0012906D0002927D0022906D0032991
:1004100006D001E0254823E0002021E024481FE029
:1004200024481DE0012906D0002918D0022906D051
:10043000032906D001E0204812E0002010E01F4808
:100440000EE01F480CE000200AE01E4808E00320F0
:1004500006E01D4804E01D4802E01D4800E01D487C
:100460007047C0460010004200080042000C0042E5
:1004700000180042001C0042001400420300050066
:1004800003000600030007000300010003001E0034
:1004900003001F000300090003000A0003000B0013
:1004A00003001100030012000300130003000D00FD
:1004B00003000E0003000F000300170003001800E4
:1004C00003001900030004000300080003001000EB
:1004D00003000C000300160030B587B00C4B6A46D1
:1004E00032CB32C232CB32C2009B834206D00123D0
:1004F0009A0069465258824203D100E00023D8B2E4
:1005000003E00133062BF3D1002007B030BDC04615
:10051000903C0000F0B5474680B40C1C9046002883
:1005200010D1002A0ADD8F18094E0A4D3068211CAF
:100530002B6898470134BC42F8D101E0002398466B
:10054000404601E00120404204BC9046F0BDC04658
:10055000AC010020A4010020F0B5474680B401386A
:10056000022815D8002A10D0151C0E1C00240C4B94
:1005700098460C4F43461868315D3B689847002801
:1005800009DB0134A542F5D100E00024201C04E081
:100590000120404201E00120404204BC9046F0BDF1
:1005A000AC010020A8010020084B19680868103031
:1005B000F0C8A046A946B246BB4680F30988203859
:1005C000F0C871460D2001430847C046FC000020DA
:1005D000EFF309800E4B1A6820381060F0C04446D3
:1005E0004D4656465F46F0C008B572B600F07AF93F
:1005F00062B60CBC116808681030F0C8A046A94665
:10060000B246BB4680F309882038F0C81847C04678
:10061000FC00002008B580225205034B1A6072B618
:10062000024B984762B608BD04ED00E0C907000020
:1006300043685A684A6042688A605A6891605960A3
:100640004160086103680133036070474368826852
:100650009A60836842685A6003695A68824201D18D
:1006600082685A60002202611A68013A1A601868AA
:100670007047C04610B5041C036C002B08D10368FA
:10068000002B26D14068154B98470023636020E07B
:10069000002A0ED180681A1C114B9847A368226C5F
:1006A00094466344A3606268934212D32368A360B4
:1006B0000FE0C0681A1C0A4B9847236C5B42E26843
:1006C000D218E26021688A4203D262689446634489
:1006D000E360A36B0133A36310BDC046090A0000A9
:1006E0002D32000010B582B00190C46C002C01D1F5
:1006F00072B6FEE7A26BE36B9A4201D372B6FEE7D5
:10070000A26B002093420ED90A1C201C01A9074BA2
:100710009847636A0020002B05D0201C2430044B2E
:100720009847431E984102B010BDC04675060000B0
:100730008D09000070B5002801D172B6FEE70029CE
:1007400004D1046C002C01D072B6FEE772B6846B43
:100750000025C66BB4422ED21D1C161C041C1A1C8C
:10076000164B9847A36C01331DD1E36C002B0BD0C3
:10077000201C291C124B9847012501281BD1002E53
:1007800016D00123336016E0636A0125002B12D0D6
:10079000201C24300B4B984700280CD0002E09D089
:1007A0000123336007E0A36C0133A364012502E059
:1007B000012500E0012562B6281C70BD7506000009
:1007C000E50600008D090000F8B53B4B1B68002BC7
:1007D0006DD13A4B1A6801321A601B68002B20D188
:1007E000374B1B681B68002B01D072B6FEE7344BF9
:1007F0001968344A10681860116033490A68013278
:100800000A601B681B68002B04D1012252422F4B47
:100810001A6006E02A4B1B68DB68DB685A682B4BC2
:100820001A60264B1A68294B1B689A4243D3244B03
:100830001B681B68002B0BD0214B1B68DB68DD6835
:100840006B681E4A1268934210D8214F214E10E067
:10085000012252421D4B1A602DE0194B1B68DB68C8
:10086000DD686B68154A1268934202D9174A136013
:1008700021E02C1D201CB847AB6A002B03D0281C9C
:100880001830134B9847EB6A3268934201D9114AEA
:1008900013609800C3189B000F48C018211C0F4B11
:1008A0009847074B1B681B68002BD6D1D0E70C4A32
:1008B000136801331360F8BDF80000201801002010
:1008C000900000201C0100201401002000000020E6
:1008D0004D06000020010020940000203106000099
:1008E0008C00002010B5244B1B68002B10D1234B2B
:1008F0001B689A00D3189B00214A9B58002B1AD1E1
:100900001E4B1B68002B0AD01C4A1D4C101C08E013
:1009100001221C4B1A602DE00368002B01D172B636
:10092000FEE71368013B136013689900CB189B0026
:100930001B59002BF0D0114B1B68114C9A00D11899
:1009400089006118486840684860D21892000832EF
:10095000A218904205D141689A00D2189200A218BC
:1009600051609A00D3189B00054AD3185B68DA6877
:10097000054B1A6010BDC046F80000202001002081
:100980009400002024010020FC00002038B5C3683A
:10099000DD68002D01D172B6FEE72C1C1834201C36
:1009A000124B9847124B1B68002B13D12C1D201C97
:1009B0000E4B9847EB6A0F4A1268934201D90D4AD1
:1009C00013609800C3189B000B48C018211C0B4BE8
:1009D000984703E00A48211C084B9847094B1B68BD
:1009E000EA6ADB6A00209A42404138BD4D060000A9
:1009F000F8000020200100209400002031060000B3
:100A000000010020FC00002038B500281BD0C36A7C
:100A1000C26B934217D0041C051D281C0A4B984733
:100A2000E36BE3620522D21AA261084A126893427C
:100A300001D9064A13609800C01883000448C01802
:100A4000291C044B984738BD4D06000020010020AA
:100A50009400002031060000F0B55F4656464D4632
:100A60004446F0B491B0051C0C1C161C2960081CEF
:100A7000B94B984722680523D20700D563E1226865
:100A80001733920700D55EE1B4490A6A871C1B3B05
:100A9000BB4013430B620FA92D27F35D0B7014307D
:100AA000C3B20293181CAE4B98470298AD4B9847BF
:100AB000F05D0021AC4B9847F37A6B712423F35C13
:100AC000AB712523F35CEB71F37E2B72337F6B727A
:100AD0002B689A46181CA04B9847143000220E230E
:100AE00006A98C4663441A80338A99468023DB0129
:100AF000994519D004D880239B0199450AD003E178
:100B0000C023DB0199450AD080231B02994500D1FF
:100B1000FFE0F9E0102398460F3B0793FDE0082320
:100B20009846073B0793F8E033689B46F3680293C7
:100B300073690393337E04932623F35C05937268F1
:100B40000692002A15D080235B059A4236D12723CE
:100B5000F35C002B36D1336A9846C0B2834B98477A
:100B6000011C40460E2206AB9C466244804B9847CF
:100B700025E008239846002307932723F35C002BE6
:100B80000BD043460093306AB16A0E2206AB9C46F6
:100B90006244079B774FB84711E0336A1F1CC0B20D
:100BA000724B9847011C43460093381C0E2206AB3B
:100BB0009C466244079B6F4FB84700E00020031E2D
:100BC00000D0C0E0737E002B02D0B37E52469373F8
:100BD0002A68069FD369002BFCD10E3306AA9446DF
:100BE00063441B8852469381029B5A461343039ADF
:100BF00013433B434A461343049A12021343059A94
:100C000057071F432723F35C002B01D104331F43F5
:100C1000337F5902727E93020B43727F1202134399
:100C20002422B25C520413432522B25C1204134303
:100C3000F17A19433389FF2B04D0802252041743E1
:100C4000194305E0F37E002B02D08023DB041F4311
:100C50002C23F35C002B03D1474B9B789B0701D5DA
:100C600080231F432A68D369002BFCD15346596067
:100C70002A68D369002BFCD153461F600EAB80223B
:100C80001A7000225A70DA709A70336B0A93736B81
:100C90000B93B36B0C93F36B02930D9300270EAE83
:100CA000F9B2BB000AAA9858002802D1201C334B85
:100CB0009847431C05D03070000CC0B2311C304B3B
:100CC00098470137042FEBD10023EB602B616B6158
:100CD000AB61EB612B62AB626B620022EB85AB8593
:100CE0003033EA540133EA540133EA540133EA540D
:100CF0002868194B9847041C2249234B9847A400A5
:100D0000224BE55000231EE0102398460023079352
:100D100003E0032398460023079333689B46F36858
:100D2000029373690393337E04932623F35C059344
:100D300072680692002A00D11FE780235B059A4261
:100D400000D104E73EE7181C11B03CBC9046994620
:100D5000A246AB46F0BDC046D904000000040040E6
:100D6000291D00009D1C000005030000451D00001A
:100D7000150100003D01000000200041510300006A
:100D8000211E0000450E0000F5150000B0010020F6
:100D900010B50368C4791C22002C0DD0C08D80B220
:100DA000173A002808D1DA69002AFCD119850221F6
:100DB0001A7E0A42FCD00022101C10BD10B5046837
:100DC00082791C23002A2FD0828D92B2173B002AF1
:100DD0002AD1227E520727D5E369002BFCD1638BF1
:100DE000DBB29A061DD09A0703D50223638318331A
:100DF0001AE05A0703D5042363831A3314E0DA0791
:100E000003D50123638312330EE0DA0603D51023E2
:100E10006383323308E09B0603D5202363832133A9
:100E200002E0238D0B800023181C10BD931C9B0037
:100E3000C3185960012393401A1C3021435C1A43A4
:100E400042547047F8B58000604BC5582C68E36980
:100E5000002BFCD1237EA67D1E403123EB5C30228B
:100E6000AF5C1F40F30722D5EB8D9BB2002B1CD04B
:100E7000AA6A1378DBB2511CA9626979012901D0F1
:100E80009BB204E0517809020B430232AA62DB05EF
:100E9000DB0D2385EB8D013B9BB2EB85002B06D14F
:100EA000013323750133A37501E001232375B307D3
:100EB00009D50223237500223133EA54FB0702D5FA
:100EC000281CEB689847730760D5AB8D9BB2002B4D
:100ED0005AD0638BDBB21A0702D43F22134001E0E1
:100EE00037221340002B2DD09A0705D51A22322322
:100EF000EA54303B63831FE05A0705D51E22322394
:100F0000EA542E3B638317E0DA0705D51322322318
:100F1000EA54313B63830FE0DA0605D542223223DF
:100F2000EA54223B638307E020221A4204D0213294
:100F30003223EA54123B63837B0727D5281C6B6955
:100F4000984723E0238DDB05DB0DDAB2696A0A706E
:100F50006A6A511C69626979012904D11B0A5370BC
:100F60006B6A01336B62AB8D013B9BB2AB85002B8F
:100F70000CD10433237500222E33EA54BB0705D568
:100F8000281C2B69984701E004232375F30607D535
:100F9000102323752376FB0602D5281CEB6998479E
:100FA000B30607D52023237523763B0702D5281CDB
:100FB000AB699847330707D5082323752376BB060B
:100FC00002D52B6A281C9847F8BDC046B001002006
:100FD000F0B55F4656464D464446F0B489B080466B
:100FE0000D1C141C031C19600B689B0700D4A9E09E
:100FF000936A0393D36A0493136B0593536B06931D
:1010000000271F239946F9B2BB0003AA985800286D
:1010100002D1281CAE4B9847431C28D001040B0C6E
:101020009B46000CC6B20023020604D47309DB0100
:10103000A84A944663444A463240981840300078A3
:10104000824680205146C9070AD552089B18303382
:101050001878C0B2F30701D5000901E00F2318404A
:10106000834504D00023424613601C2028E1013749
:10107000042FC8D11320984B9847011C23780027D0
:10108000012B11D1A06902AA944B9847031C172089
:10109000002B00D014E12B7BDBB202AA12780530C2
:1010A0009A4200D00CE10C372678002E16D1A369A5
:1010B0009C46A38B2A68E17F0904A07F01431C2082
:1010C000914200D0FCE02022A25C002A01D0402204
:1010D00013430822614611430F4300E00023A26836
:1010E00061680A43E1680A433A43217C0B43617C0F
:1010F000002901D080210A43A17C002902D080214F
:1011000089020B43E17C002902D0802189000B4336
:10111000217D002902D0802189010B43286802210A
:101120000A43824209D16A689A4206D143465E71F7
:10113000237C424693710020C2E0002342461360A4
:101140001C20BDE00B680520DB0700D5B8E0081CBB
:10115000634B984763490A6A861C0123B3401343D3
:101160000B6207A92427E35D0B701430C6B2301C54
:101170005D4B9847301C5D4B9847E05D00215C4B10
:1011800098472378012B03D12A680B3313432B6034
:101190002378002B03D12A68083313432B6043467E
:1011A0001E6802AB80221A7000225A7001219970C9
:1011B000DA702378002B01D102AB9A70A36A0393F3
:1011C000E36A0493236B0593636B0693002702ADD8
:1011D000F9B2BB0003AA9858002802D1301C3C4B3E
:1011E0009847431C05D02870000CC0B2291C414B05
:1011F00098470137042FEBD1237842465371237C63
:101200009371A37CD371237D137200226B46DA8025
:101210002378012B15D143461868314B9847143079
:10122000C0B22D4B9847011CA0696B469A1D2B4BF1
:101230009847031C1720002B42D16B4606331B78BE
:1012400033732378002B0FD1A769A38B706AE17FDA
:101250000904A57F2943014371622022A25C002A70
:1012600004D040210B4301E000230027A2686168FD
:101270000A43E1680A433A43217C0B43617C00291D
:1012800003D11D498978890701D580210A43A17CB2
:10129000002902D0802189020B43E17C002902D081
:1012A000802189000B43217D002902D08021890102
:1012B0000B4331680A433260726813437360002045
:1012C00009B03CBC90469946A246AB46F0BDC0462C
:1012D0005103000000440041451D000015010000BD
:1012E000D904000000040040291D00009D1C0000DE
:1012F00005030000211E00000020004110B54479C4
:101300001523012C6ED1047A0023002C6AD1002A07
:1013100058D04B78002B44D003681B7EDB0710D4D9
:101320000B78D9090022002904D15A09D2012E498B
:101330008C4662441F210B401E3999409161052360
:1013400050E00B78DC090022002C04D15A09D201AC
:10135000254CA44662441F2423401E3C9C405461FB
:101360008A780368197EC90700D59A62C27900237A
:10137000002A37D102680421137E0B42FCD0117E73
:10138000002349072ED5538B5B0701D504235383D4
:101390008379012B02D1936A002323E0936A00230F
:1013A00020E00B78D9090022002904D15A09D20182
:1013B0000D498C4662441F210B401E3999405161F2
:1013C00000230FE00B78D9090022002904D15A0923
:1013D000D20105498C4662441F210B401E399940B9
:1013E00091610023181C10BD00440041F0B55F4618
:1013F00056464D464446F0B483B01723002A00D128
:10140000E7E04379002B05D103681C7EA40701D5D2
:1014100002241C769346002401230425AC468FE069
:101420004579002D17D107683D7E1D4206D16D4DCF
:101430003E7E1E4202D1013D002DF9D10668357E67
:1014400002273D4203D0022333760233C1E0357ECA
:101450001D4200D1B4E00668357E1D42FCD0651CFB
:10146000AFB20D5DA9468579012D05D04C466D467C
:10147000AC80AD883C1C05E00234A4B2CF5D3F02D5
:101480004D463D43377E1F4202D0ED05ED0DB5625E
:10149000551EADB2C679002E55D04579002D39D1F3
:1014A000514D8A46002A20D00668377E1F421CD044
:1014B000671CB9B288465146095D019181790129BD
:1014C00003D069468F88444607E00234A4B24146FF
:1014D0005746795C0902019F0F43317E194202D0C1
:1014E000FF05FF0DB762013A92B20668377E61468A
:1014F0000F4202D1013D002DD4D15146357E022745
:101500003D4203D002233376023362E0357E6646E5
:10151000354257D00668357E67463D42FBD0357E62
:101520003D4209D0758B3D4200D077838579012DEE
:1015300001D1B56A00E0B56A5D46013DADB2AB468A
:10154000013A92B200E02A1C284DAA4200D067E777
:101550005A464379012B06D1016802220B7E1342C1
:10156000FCD0002335E0002B2ED1C179002930D0EA
:10157000002A1CD12DE0227E0A4202D1013B002B21
:10158000F9D103681A7E0A4220D01A7E0A4209D095
:101590005A8B0A4200D059838279012A01D19B6A71
:1015A00000E09B6A013EB6B2002E03D110E0042198
:1015B0000C4D5E460468237E0B42E2D12B1CDAE719
:1015C000122306E0122304E0002302E0122300E0CD
:1015D0000023181C03B03CBC90469946A246AB467B
:1015E000F0BDC0461027000011270000FFFF0000DB
:1015F0007047C046F0B50A4B1B78002B0CD1094F41
:10160000094E0A4D0024DE515A1914600433182B78
:10161000F9D10122024B1A708000024BC150F0BD7B
:10162000280100202C010020F1150000B00100204D
:1016300010B582B0041C684605490622054B984740
:10164000201C054B98476B46185602B010BDC0468B
:10165000A83C00002D320000D904000008B5024B60
:101660001B680020984708BD2C01002008B5024BDC
:101670005B680120984708BD2C01002008B5024B8B
:101680009B680220984708BD2C01002008B5024B3A
:10169000DB680320984708BD2C01002008B5024BE9
:1016A0001B690420984708BD2C01002008B5024B97
:1016B0005B690520984708BD2C0100200C4B1B6876
:1016C000002B10D1EFF31083002B09D172B6BFF3BA
:1016D0005F8F0022074B1A700132074B1A7002E02D
:1016E0000022054B1A70024A1368013313607047D9
:1016F000440100200400002048010020084B1A6823
:10170000013A1A601B68002B09D1064B1B78002B8D
:1017100005D00122044B1A70BFF35F8F62B6704789
:10172000440100204801002004000020F0B583B0EF
:1017300001AC012565700027A77025703E20211C93
:10174000064EB0478022D205054B9A61277065701E
:101750000F20211CB04703B0F0BDC0466517000044
:101760008044004100B583B001AB80221A700A7832
:101770005A704A789A708A78DA70191C014B984727
:1017800003B000BD211E000008B5082803D8800062
:101790001B4B1B589F46002031E01A4B18692EE066
:1017A000194B186A8005800F184BC340181C26E09F
:1017B000144B586923E0134B1B68022018401ED0BD
:1017C00011491022CB681A42FCD00E4B1B685B07F4
:1017D00014D500200E4B98470A4B9B681B041B0C2A
:1017E00058430CE05023084AD35C00205B0706D521
:1017F000044BD86803E08020000200E0054808BDE3
:10180000B03C00004C0100200008004000127A00AB
:10181000451D0000006CDC0270B50C4C236A017899
:10182000857842780120024092014026B343134359
:10183000021C2A40D2017F308343134303220A4013
:10184000120203490B401343236270BD000800409D
:10185000FFFCFFFFF0B55F4656464D464446F0B4E8
:1018600083B02E4EB38A9C46457803785A425A413B
:10187000914683789B46C37802799046477B027BEA
:101880000192847B82682648426101204A46920088
:10189000914604229246624651468A4394464A46FD
:1018A00061460A43944642460240D20090460822CE
:1018B0009146624649468A439446424661460A43F7
:1018C000944603401B0110229046624641468A43DB
:1018D0001343594601404901202293430B43019A87
:1018E0000240920140218B4313430740FF018022B5
:1018F00093433B43793A15402D020A4F3B402B431B
:1019000004402003084C1C400443B48203B03CBC98
:1019100090469946A246AB46F0BDC046000800403E
:101920004C010020FFF8FFFFFFEFFFFF10B5037A27
:101930009B061A0C43899B059B0D1343194C63604E
:10194000818843881943C379827913430B434278D2
:10195000D201134323600378042B0FD1037B9B0632
:10196000028A1343191CC3891B040F4A13400B43FB
:10197000A360216804230B43236011E0202B0FD1C7
:10198000037B9B06028A1343191CC3891B04064A66
:1019900013400B43034A9360136804490B431360DD
:1019A00010BDC0464C0100200000FF0324040000CD
:1019B000082803D88000254B1B589F46172044E079
:1019C000234A116A02230B43136200203DE0204AA0
:1019D000916902230B439361002036E01C4A118A6F
:1019E00002230B43138200202FE0194A918A02231D
:1019F0000B439382002028E016490B680222134310
:101A00000B60134B9A84191C0E32CB681A42FCD01F
:101A1000104A91680E4BD96252689A6200229A84E9
:101A2000191C1032CB681A42FCD00A4B1B689BB2BF
:101A3000074A9384002008E005494422885C022379
:101A400003438B54002000E000207047D43C00008A
:101A5000000800404C01002030B585B0C222D20001
:101A60001A4B9A601A4A53681E218B435360012314
:101A70006A4613700024174DE0B26946A847013446
:101A8000252CF9D103A80024447001258570047029
:101A9000114B98470620114B9847114B9847114B13
:101AA0001C725C729C72DC7201956B465C70062342
:101AB0006A46137014725472002069460A4B9847A4
:101AC00000200A4B984705B030BDC04600080040D2
:101AD00000400041291D000019180000B119000044
:101AE000F11A000000040040151B0000CD1B00008F
:101AF000064A916908230B4393610122044B1A7033
:101B0000191C0B781342FCD17047C04600040040FA
:101B1000000C004070B5061C041C0D782D02054316
:101B20004B78002B02D08023DB021D434B7A002B25
:101B300002D080231B031D434868012818D9431E87
:101B4000184210D1022806D90223002201325B007C
:101B50009842FBD800E0002212023243141C80237A
:101B60005B031D4304E00402344380239B021D43B6
:101B70000B7A002B02D080239B031D430F4A53781E
:101B80005BB2002BFBDB0E4B98470E4B1E700B4AD3
:101B900053785BB2002BFBDB084B9C601A1C53781C
:101BA0005BB2002BFBDB054A516880235B020B40D4
:101BB0001D435560044B984770BDC046000C004063
:101BC000BD160000080C0040FD16000010B5041CF6
:101BD0000B4A53785BB2002BFBDB0A4B98470A4B4E
:101BE0001C70074A53785BB2002BFBDB044A536836
:101BF000802149020B435360044B984710BDC046F7
:101C0000000C0040BD160000040C0040FD16000052
:101C100070B5041C1A4A53785BB2002BFBDB194BDE
:101C20009847194B1C70164A53785BB2002BFBDBAC
:101C3000134E7068C004C00E144B9847051C124B1D
:101C40001C707668F602F60F114B1C700C4A537824
:101C50005BB2002BFBDB0A4B9C68240AA4B20D4B41
:101C60009847002E07D1012C07D9281C211C0A4BAC
:101C70009847051C01E00134E540281C70BDC046B2
:101C8000000C0040BD160000040C00408917000045
:101C9000080C0040FD1600007525000010B5041C5E
:101CA000064B9847064B1C70064A51888023DB017F
:101CB0000B435380044B984710BDC046BD1600002F
:101CC000020C0040000C0040FD16000010B5041C82
:101CD0000F4B98470F4B1C700F4B5A881205100F73
:101CE00059880E4A0A405A8059880D4A0A405A803B
:101CF000191C8022D2014B881342FCD106490202F2
:101D00004888064B034013434B80064B984710BD51
:101D1000BD160000020C0040000C0040FFF0FFFF69
:101D2000FFBFFFFFFD16000010B50C78240204432E
:101D3000024B9847A4B2024B5C8010BDCD1C000042
:101D4000000C004010B5041C064B9847064B1C7055
:101D5000064B5C882405240F054B9847201C054B37
:101D6000984710BDBD160000020C0040000C00405A
:101D7000FD160000111C000030B5D378002B1ED1D9
:101D80001478802C04D0240680235B021C4300E0DE
:101D9000002453780225AB430AD19378002B03D15A
:101DA00080239B021C4302E0C023DB021C434160F2
:101DB0005378013B012B12D8184B1C400FE04160B7
:101DC0000B041B0CA024E405234383620B0CD024DA
:101DD000240623438362D378002B18D01CE00B0425
:101DE0001B0CA025ED052B43234383620B0CD02550
:101DF0002D062B4323438362D378002B0CD163033E
:101E000005D59378012B01D1816100E041615378C0
:101E1000013B012B00D8816030BDC046FFFFFBFFB6
:101E200008B5031C0A1CC1090020002904D1580967
:101E3000C00105498C4660441F210B401E39994062
:101E4000024B984708BDC04600440041791D000080
:101E50007047C04608B5054B9847054B9847054B5A
:101E60009847054B9847054B984708BD591A0000FD
:101E70002D170000511E0000511E0000511E0000D1
:101E8000FEE7C04670B52E4B2E4A9A4203D02E4B29
:101E90002B4A9A4204D32D4B2D4A9A4210D31EE06E
:101EA0002C4A294B03339B1A9B0801339B000022C9
:101EB000234824498C58845004329A42FAD1EAE7E4
:101EC000254A224B03339B1A9B0801339B000022B7
:101ED0001F4800211418216004329A42FAD11F4A87
:101EE000FF211F4B8B439360FD3990235B001D4AFC
:101EF000D1501D48C3780324A34302221343C37067
:101F0000C3780C26B34308210B43C370174B987B4F
:101F10003025A843051C202028439873987BB043A4
:101F200001439973997BA1430A439A73104A5168FC
:101F300080230B4353600F4B98470F4B9847FEE7A6
:101F400000000020743E00006C00002068020020A9
:101F50006C000020040000207000002000ED00E074
:101F600000000000007000410050004100480041A6
:101F700000400041E131000089240000031C064AB2
:101F80001268002A02D10549034A1160024A10680A
:101F9000C31813607047C046640100206822002007
:101FA000012040427047C04680239B014B600020C7
:101FB0007047C046012070470020704770B582B05E
:101FC000051C0E1C00226B46DA80064C281C6B4652
:101FD000991DA0470028F9D16B4606331B88337042
:101FE00002B070BDBD0D000070B5051C8CB2034E73
:101FF000281C211CB0470028FAD170BD910D0000AB
:1020000010B582B000230193094B1868002101AA82
:102010000023084CA047019B002B03D080225205CF
:10202000054B1A600548064B984702B010BDC046E4
:10203000500200203507000004ED00E0F83C0000ED
:1020400011330000F0B583B00005000DC0239B01E3
:10205000184301AD030A2B706870094C094F201C0E
:10206000391C0122084EB047201C291C0222074BB4
:102070009847201C391C0022B04703B0F0BDC04671
:102080005402002060020020FD120000ED13000049
:1020900070B50E1C074CA047051C301CA047011C46
:1020A000281C054B98470549054B9847054B984711
:1020B00080B270BD2D2F00001D27000000F07F456D
:1020C0008D290000ED26000000B585B000236A468A
:1020D000137093708022120202926A46D37001221A
:1020E00069460A710B734A738B7303334B706846EE
:1020F000014B984705B000BD5518000008B5034BCB
:1021000098470520024B984708BDC046C9200000EB
:10211000B119000000B587B001A8002303700022A8
:10212000438083808271C27101334370072202723F
:10213000383242810373C38105330382014B9847D0
:1021400007B000BD2D19000000B585B00C4B9847B5
:1021500007200C4B98470C494B681E2293431A3AB0
:1021600013434B6001A901234B6000234B700B729A
:102170004B7207330B700020044B984705B000BD2D
:1021800015210000B119000000400041151B00009E
:1021900000B585B001A900234B7006220A700B72AE
:1021A0004B7204334B600220034B98470220034BD1
:1021B000984705B000BDC046151B0000CD1B0000B0
:1021C00000B583B001A902230B701B20034B984775
:1021D0001B20034B984703B000BDC046291D0000DB
:1021E0009D1C000070B590B08023DB050093002398
:1021F0000193FF2269460A8100216A469372D372D5
:10220000012224206C4622540130225401302354F0
:10221000013023540A930530235405932382E37637
:10222000217661761323A3766177E1235B0208931D
:1022300080235B030393154B0C93154B0D930123E4
:102240005B420E930F93227701322D23E254114EFD
:10225000114D124C301C291C6A46A0470028F9D1A8
:102260000C4D2C68201C0E4B98471F2318401E3B1A
:102270008340181C0B4B18602A68D369002BFCD1D3
:10228000226802331343236010B070BD02001000B7
:1022900002001100DC010020000C0042590A00007D
:1022A0003116000000E100E010B5064C201C064984
:1022B0000522064B98473122A15C20230B43A354EF
:1022C00010BDC046DC010020012000002D0E0000E2
:1022D000F0B591B08023DB05009300230193FF222A
:1022E00069460A8100228B72CB7201242421684640
:1022F00044540131445401314354013143540A934D
:102300000531435405930382C37602760277427601
:10231000132383764277E1235B02089380235B03D8
:1023200003931B4B0C931B4B0D9301235B420E93AA
:102330000F9302222E33C254174D184B1D60184ABA
:10234000184B1A60184A194B1A60281C18496A461B
:10235000184B9847184F3B6898680021174EB047B4
:102360003B6858680021B0472E68301C144B9847D2
:102370001F2318408440134B1C602A68D369002B2C
:10238000FCD1326802331343336011B0F0BDC04654
:10239000020016000200170010020020AC0100200D
:1023A000E91F0000A8010020BD1F0000A4010020BB
:1023B00000140042590A0000680000202533000084
:1023C0003116000000E100E010B590B0244C282345
:1023D000237000236370A37001A901224A708B70DF
:1023E0000A7028201F4B98472378D909002200291A
:1023F00004D15A09D2011C498C4662441F210B406A
:102400001E39081C9840906102AA11700023536085
:102410009360137453749174D174137509930A9370
:10242000124B936180235B02D360114B93620123B3
:102430005B42D3620F4B13630F4B53630131242371
:10244000D1540E4C201C0E490E4B98472268D3697C
:10245000002BFCD1116802330B43136010B010BD88
:10246000600200206517000000440041A0860100C2
:1024700003000400030006000300070054020020CC
:1024800000080042D10F000070B5294B9847294B36
:102490009847294B9847294B9847294B9847294BF0
:1024A0009847294B9847294B98470124284B1C7083
:1024B000BFF35F8F62B6274B98472748274B984753
:1024C000274B1C7002225A7000225A600521996025
:1024D000244B1A601D1C224C234E2B685900CA182D
:1024E0009200A218506891684B10984206DC400098
:1024F0001D4B984780081D4B188005E0081A4000C6
:10250000B0478008194B1880154A53689268934267
:1025100003DA0133124A536002E00022104B5A6082
:10252000124B18884300C01880B2114B9847D4E76B
:10253000551E0000FD2000004921000091210000EF
:10254000C1210000E5210000D1220000A9220000E5
:1025500004000020C92300001C3D000011330000CE
:102560006C010020D40100209120000068010020AF
:1025700045200000002243088B4274D303098B429C
:102580005FD3030A8B4244D3030B8B4228D3030C43
:102590008B420DD3FF22090212BA030C8B4202D3E5
:1025A0001212090265D0030B8B4219D300E0090A0D
:1025B000C30B8B4201D3CB03C01A5241830B8B4216
:1025C00001D38B03C01A5241430B8B4201D34B03FF
:1025D000C01A5241030B8B4201D30B03C01A524164
:1025E000C30A8B4201D3CB02C01A5241830A8B42E9
:1025F00001D38B02C01A5241430A8B4201D34B02D2
:10260000C01A5241030A8B4201D30B02C01A524135
:10261000CDD2C3098B4201D3CB01C01A52418309E9
:102620008B4201D38B01C01A524143098B4201D323
:102630004B01C01A524103098B4201D30B01C01A4E
:102640005241C3088B4201D3CB00C01A52418308C8
:102650008B4201D38B00C01A524143088B4201D3F5
:102660004B00C01A5241411A00D201465241104655
:102670007047FFE701B5002000F00CF802BDC0462E
:102680000029F7D003B5FFF775FF0EBC4243891A46
:102690001847C0467047C046F0B54F464646050449
:1026A0002D0C2C1CC0B41704160C3F0C9946030CBF
:1026B0007C4375435F4373437D19260CAD199C46DB
:1026C000AF4203D980235B029846C4444B46514332
:1026D000434324042E0C240C2D0466442C19591851
:1026E0008919201C0CBC90469946F0BD9E2110B55E
:1026F000C905041C00F092FC002803D1201C00F046
:10270000F5FB10BD9E21201CC90500F071FA00F0F8
:10271000EDFB80231B069C466044F2E7F0B556466D
:102720004D465F464446F0B443024500C70F83B0B0
:102730008A465C0A2E0EB94641D0FF2E26D0802351
:102740001B042343DC00002398469B467F3E5346F0
:102750005B025D0A53465A00DB0F120E9A4639D0CF
:10276000FF2A33D080231B042B43DD0000237F3A54
:102770005146B21A46467940081C01921E430F2E5C
:1027800000D976E07E4AB6009659B746002C30D183
:1027900008239846063B9B46D9E780230021DB03AC
:1027A000FF245B02E4055B0AC90723430B43181CA3
:1027B00003B03CBC90469946A246AB46F0BD002C07
:1027C00028D104239846033B9B46C0E7002D1FD128
:1027D000022302E0002D11D10123B21A50464646D1
:1027E000784001921E430F2E27D86649B6008959BA
:1027F0008F460C239846093B9B46A8E7281C00F00F
:1028000017FC7622431F52429D40121A0023AFE765
:102810000323ADE7201C00F00BFC431F9C407623F4
:102820005B421E1A002398469B4690E70025D1463E
:102830009B465B464846022B6FD10121FF24014095
:102840000023AEE77E23019A5B429B1A1B2B6DDDB2
:1028500001214B46194000240023A2E78023DB031B
:102860001C4249D18023DB0323435B025B0A391CF2
:1028700096E763016D01AB4237D389461A200121E7
:102880005B1B01241E1C49005B00002E01DBAB42D8
:1028900001D35B1B214301380028F3D1581E83412B
:1028A0000B431D1C019C7F34002CCBDD6B0704D037
:1028B0000F232B40042B00D004352B0104D5019AA3
:1028C000314B8032141C1D40FE2C07DD4B4601218C
:1028D000FF241940002364E7251CAAE701214A468A
:1028E000AB015B0AE4B211405BE7019A8946013A09
:1028F00001921B200021C4E71D4207D023435B0245
:102900005B0A391C4CE700256302ABD58023DB034F
:102910002B435B025B0A514642E7032B25D0012B78
:10292000C0D101210024014000233AE7291CD940ED
:102930002B1C019A9E3293405D1EAB410B435A07FC
:1029400004D00F221A40042A00D004335A0105D5BE
:102950004B46012101241940002322E701214A4668
:102960009B015B0A114000241BE7802301214A469A
:10297000DB032B435B020A405B0A111C10E7C046D5
:102980002C3D00006C3D0000FFFFFFF7F0B55F46F7
:1029900056464D464446F0B445024600C40F83B047
:1029A0000F1C6D0A360EA34645D0FF2E25D080237E
:1029B0001B041D4300239A46ED007F3E01937B02DA
:1029C0005B0A98467800FB0F000E994640D0FF281E
:1029D00038D0802342461B041343DB009846002373
:1029E0007F384A46019F30186240411C1F430F2F19
:1029F00069D87D4EBF00F659B746002D45D1082352
:102A00000193063B9A46DAE793465346022B2FD1B1
:102A10005B46012400251C40FF236D02DB056D0A87
:102A2000E4071D432543281C03B03CBC904699464F
:102A3000A246AB46F0BD002D2CD104230193033BED
:102A40009A46BCE743465A4253410322D31AC8E789
:102A500042460123002AC4D0404600F0E9FA42462B
:102A6000431F9A4076235B42181A90460023B8E72A
:102A7000032B00D1ADE0012B00D08CE05B46544627
:102A80001C40E4B200230025C7E70C230193093B57
:102A90009A4694E7281C00F0CBFA7626431F9D4007
:102AA00000237642361A01939A4688E7802500244F
:102AB000ED03FF23B1E74546CB469A46A5E74546D9
:102AC00093469A46A1E743462C041B0C9C46230CD4
:102AD000444626041C1C360C2F0C7443351C6646D9
:102AE0007D4373437743EB18260C9E19B54203D9F7
:102AF00080235B029C46674424043304240C1B1986
:102B00009D016C1EA5419B0E360C2B43BD19AD01DA
:102B10001D432B0104D5012368081D400543081CF3
:102B2000031C7F33002B2CDD690704D00F212940C3
:102B3000042900D00435290103D52C4B1D40031C6A
:102B40008033FE2B17DD0124FF231440002564E7AA
:102B50008020C003054209D04346034206D14546C2
:102B600005436D026D0A4C46FF2356E705436D028F
:102B70006D0AFF2351E70124AD016D0ADBB2144059
:102B80004BE77E235B421B1A1B2B07DD012400232E
:102B90001440002541E7081C5A46C1E79E30291C15
:102BA0008540D940681E85410D436B0704D00F2333
:102BB0002B40042B00D004356B0104D501240123E4
:102BC0001440002529E70124AD016D0A14400023BB
:102BD00023E78023DB031D4301245B466D02234072
:102BE0001C1C6D0AFF2318E7AC3D0000FFFFFFF738
:102BF000F8B54A00430244004D02C00F240E061CE3
:102C00009B09120EC90FAD09FF2A00D175E00127FB
:102C10007940884250D0A01A002800DC8FE0002ABA
:102C20001ED1002D00D075E05A0704D00F221A40A3
:102C3000042A00D0043380220120D2041A403040FC
:102C4000002A32D00134FF2C00D184E09B015B0AC2
:102C5000E4B25B02E4055B0A2343C0071843F8BDF6
:102C6000FF2CE1D08022D20415431B287ADD0125F8
:102C70005B1B5A015DD59B019F09381C00F0D8F9F8
:102C800005388740844269DC001B1F243A1C431C22
:102C9000201ADA408740131C7C1EA74100243B43C6
:102CA000C2E7131E45D100230020DB08FF2C28D0EB
:102CB0005B025B0AE4B2CCE7A11A00295BDD002AC3
:102CC0002ED0FF2CB0D08022D20415431B2974DCF7
:102CD0002F1C2022CF40511A8D40691E8D413D434B
:102CE0005B195A0125D50134FF2C74D001217E4A8D
:102CF000194013405B080B4396E7002D00D088E78E
:102D000085E7002B27D08022D20313435B025B0AA6
:102D1000FF249EE701380028AAD0FF2CA5D183E725
:102D2000002D00D180E701390029D9D0FF2CCDD169
:102D30007AE75A0700D079E701203040B5E700284C
:102D400025D1621CD2B2012A55DD5F1B7A012DD537
:102D5000EF1A0E1C91E7FF2400237AE7624B241A36
:102D60003B4061E7291C2022C140101A8540681EA3
:102D700085410D437CE7002946D1621CD1B201296F
:102D80002BDDFF2A26D0EB185B08141C4CE7002C27
:102D900015D0FF2A1AD08024E404404223431B2884
:102DA0004DDD0123EB1A141C0E1C62E7002F00D02E
:102DB00063E700230020002477E7012590E7002B3C
:102DC00039D0C0430028EDD0FF2AE8D12B1CFF24C6
:102DD0000E1C29E7FF24002367E7002C5AD1002BA3
:102DE0007FD0002D00D11FE75B195A01A1D53E4AC3
:102DF0000134134018E7002C15D1002B2FD1002DE2
:102E00005ED02B1C0E1C0FE7002C21D1002B54D0C0
:102E1000C943002904D0FF2A4CD01B2958DD0123C7
:102E20005B19141C5DE7002B23D1002D4BD02B1C0C
:102E30000E1CFF24F8E62B1C141C0E1CF4E61E1CB2
:102E40002024C640201A8340581E83413343A9E7FB
:102E5000FF2A2FD08024E40449422343DDE7002DDC
:102E600000D1E1E65A1B500100D41AE7EB1A0E1C00
:102E7000DAE6FF24002D00D1D6E68022DB08D2035B
:102E8000134204D0ED08154201D12B1C0E1CDB00AF
:102E9000FF24C9E6002B0DD0FF24002D00D1C3E68E
:102EA0008022DB08D2031342F1D0ED081542EED1A7
:102EB0002B1CECE72B1CFF24B6E62B1C141CB3E6E2
:102EC000231C0020F1E6802300209B04FF24ECE675
:102ED0001F1C2024CF40611A8B40591E8B413B435D
:102EE0009EE72B1CA0E6C046FFFFFFFB4202510AF3
:102EF0004200C30F120E00207E2A0DDD9D2A0CDC3D
:102F0000802000040143952A0ADC9620821AD140D1
:102F10000A1C58424240D0187047034A9818FBE7F1
:102F2000963A91400A1CF4E7FFFFFF7F70B5041E3C
:102F300039D0C50F00D04442201C00F079F89E2300
:102F4000261C1B1A962B07DC082801DD0838844054
:102F50006402640AD8B21EE0992B0ADD0522211C06
:102F6000121AD1400A1C011C1B318E40711E8E4169
:102F70001643052801DD421F96400F4C344072076E
:102F800004D00F221640042E00D0043462010ED467
:102F9000A401640AD8B26402C005640AED070443C0
:102FA0002C43201C70BD002500200024F3E7024BB9
:102FB0001C409F231B1AEBE7FFFFFFFB8446081C06
:102FC0006146FFE71FB500F0C5F8002801D40021D5
:102FD000C8421FBD10B500F049F84042013010BD95
:102FE00010B500F0B7F8002801DB002010BD01206B
:102FF00010BDC04610B500F0ADF8002801DD00207E
:1030000010BD012010BDC04610B500F059F80028D1
:1030100001DC002010BD012010BDC04610B500F03D
:103020004FF8002801DA002010BD012010BDC04675
:103030001C2101231B04984201D3000C10391B0AE8
:10304000984201D3000A08391B09984201D30009AC
:10305000043902A2105C40187047C0460403020203
:10306000010101010000000000000000430270B5F2
:1030700042004C005D0AC30F4802120E460A240E9D
:10308000C90FFF2A05D0FF2C08D00120A2420BD087
:1030900070BD0120002DFBD1FF2CF6D10120002EA8
:1030A000F6D10120A242F3D1B542F1D18B4205D035
:1030B000002AEDD1281C431E9841E9E70020E7E7EC
:1030C000F0B543024D024A0044005E0A240EC30FCD
:1030D0006D0A120EC90FFF2C0DD0FF2A31D0002C23
:1030E0000DD177427741002A23D1002D21D1002034
:1030F000002F0BD107E0002E28D1FF2A21D0002A73
:1031000005D08B4207D0584201231843F0BD002D53
:10311000F9D08B42F7D19442F5DC04DBAE42F2D811
:103120000020AE42F2D25842434101205B42184394
:10313000ECE7002FE5D048424141012049420843D5
:10314000E4E7002D02D1002CCBD0DAE70220404288
:10315000DCE7C0464302F0B542004C005E0AC30FF4
:103160004802120E450A240EC90FFF2A0FD0FF2C69
:103170001AD0002A10D177427741002C29D0002F95
:1031800017D0484241410120494208430BE0022048
:10319000002E08D1FF2C07D0002C0AD1002D08D119
:1031A000584201231843F0BD0220002DFBD1002A14
:1031B000E1D08B42F4D1A242F2DC04DBAE42EFD884
:1031C0000020AE42EFD25842434101205B421843F7
:1031D000E9E7002DD3D10020002FE4D1E0E7C0467D
:1031E0000E4B70B500251E1C0D4CE41AA410A54210
:1031F00004D0AB00F35898470135F8E700F02AFEF9
:10320000084B00251E1C084CE41AA410A54204D04B
:10321000AB00F35898470135F8E770BD603E0000F9
:10322000603E0000603E0000643E0000002310B5D8
:10323000934203D0CC5CC4540133F9E710BD031CA6
:103240008218934202D019700133FAE7704770B5C3
:10325000051C0E1C002804D08369002B01D100F04E
:10326000B5FAAC68A3891B0702D52369002B19D1D5
:10327000281C211C00F03EF9002813D001204042F8
:1032800045E03178002B1BDAA269934211DA221C47
:10329000281C00F0D7F8013042424241D0B2002849
:1032A000ECD10136A3683278013BA360002AE8D153
:1032B0000CE023681970236819780A2903D1E6E71E
:1032C00023681970236801332360EAE7002B17DABB
:1032D000A269934208DB0A232268137023681978D5
:1032E0000A2911D1281C01E0281C0A21221C00F007
:1032F000A9F8013042424241D0B2002806D0BDE7D1
:103300000A23226813702368013323600A2070BDEA
:1033100008B5034B011C1868FFF799FF08BDC046AC
:103320006800002008B54A424A4180235200DB0071
:1033300000F002F808BD0000F7B51E1C3C4B041C51
:103340001D680F1C0192002D05D0AB69002B02D126
:10335000281C00F03BFA374B9C4201D16C6808E016
:10336000354B9C4201D1AC6803E0344B9C4200D108
:10337000EC68019B022B58D8002E56DB281C211C20
:1033800000F0B6F900236360A361A3891B0603D58F
:10339000281C216900F00EFB8322A3899343A3819B
:1033A000019B022B13D0002F25D1002E01D18026A6
:1033B000F600301C00F0F4FA071E18D18020C0007F
:1033C00000F0EEFA071E10D10120404200E000207C
:1033D0000222A3891343A3810023A360231C473344
:1033E000236023610123636121E08026F6008022AF
:1033F000A3891343A381019B012B05D1A389019AC2
:103400001A437342A281A3610D4B0020AB62A289D3
:10341000276027616661130709D503231A405342C9
:1034200053415B421E40A66001E001204042FEBDC8
:1034300068000020F43D0000143E0000343E00000F
:103440004937000070B5051C0E1C141C002804D060
:103450008369002B01D100F0B9F9234B9C4201D1C3
:103460006C6808E0214B9C4201D1AC6803E0204B22
:103470009C4200D1EC68A369A360A3891B070AD50D
:103480002369002B07D023682269F6B2981A636972
:1034900098420FDB08E0281C211C00F02BF80028C4
:1034A000F1D0012040421DE0281C211C00F020F931
:1034B0000028F6D1A3680130013BA36023685A1CA1
:1034C00022601E706369984205D0A389301CDB0717
:1034D00008D50A2E06D1281C211C00F009F9002865
:1034E000DFD1301C70BDC046F43D0000143E00002A
:1034F000343E0000354B70B51D68061C0C1C002DB9
:1035000005D0AB69002B02D1281C00F05FF9304BCD
:103510009C4201D16C6808E02E4B9C4201D1AC6802
:1035200003E02D4B9C4200D1EC68A3899AB21107AD
:1035300023D4D10607D40922012032603732134345
:10354000A381404240E0530713D5616B002908D0A6
:10355000231C4433994202D0301C00F02BFA002384
:1035600063632422A3899343A381002363602369B7
:1035700023600822A3891343A3812369002B0BD165
:10358000A023A2899B00134080229200934203D083
:10359000301C211C00F0ACF90123A289134005D096
:1035A0000023A36063695B42A36103E0910700D439
:1035B0006369A36000202369834205D1130603D504
:1035C00040231A43A281013870BDC0466800002024
:1035D000F43D0000143E0000343E0000F7B58A8937
:1035E000051C0C1C13075ED44B68002B02DC0B6C13
:1035F000002B1ADDE76A002F17D000232E682B60FE
:1036000080235B011A4001D0626D15E0281C216AFD
:103610000123B847021C431C0ED12B68002B0BD092
:103620001D2B01D0162B02D12E6000205EE0402120
:10363000A3890B43A38159E0A3895B0706D563687F
:10364000D21A636B002B01D0236CD21A0023281CE2
:10365000216AE76AB847A389421C06D12A68002A72
:1036600003D01D2A01D0162A19D1002262602269D6
:103670002260DB0405D5431C02D12B68002B00D14E
:103680006065616B2E600029CFD0231C44339942C2
:1036900002D0281C00F08EF90020606326E0402252
:1036A0001343A38122E00F69002FBED00B680F6087
:1036B000DB1B01930023920700D14B69A360019BA0
:1036C000002BB2DD281C216A3A1C019BA66AB04778
:1036D000002806DC40220120A38940421343A38135
:1036E00004E0019B3F181B1A0193E8E7FEBD0000B0
:1036F00038B50B69051C0C1C002B01D100201CE007
:10370000002804D08369002B01D100F05FF80B4B37
:103710009C4201D16C6808E0094B9C4201D1AC6825
:1037200003E0084B9C4200D1EC680C22A35E002B06
:10373000E4D0281C211CFFF751FF38BDF43D0000E8
:10374000143E0000343E000008B5024900F0AEF817
:1037500008BDC046F1360000002310B5041C03600C
:103760004360836081814366C281036143618361F9
:10377000191C08225C30FFF762FD054B246263626E
:10378000044BA362044BE362044B236310BDC046A9
:10379000153B00003D3B0000753B0000A13B0000D5
:1037A00070B568254B1E5D430E1C291C743100F05A
:1037B00047F9041E08D000212A1C016046600C3025
:1037C000A0606832FFF73BFD201C70BD836913B514
:1037D000002B28D18364C3640365134B134A1B6811
:1037E00082620193984201D101238361041C00F09D
:1037F0001FF86060201C00F01BF8A060201C00F087
:1038000017F80421E06000226068FFF7A5FFA068B8
:1038100009210122FFF7A0FFE06812210222FFF731
:103820009BFF0123A36113BDF03D00004937000059
:10383000F8B51D4B061C1D68AB69002B02D1281C76
:10384000FFF7C4FF4835AC686B68013B05D40C2218
:10385000A75E002F10D06834F7E72B68002B06D145
:10386000301C0421FFF79CFF2860002801D02D6840
:10387000E9E70C23336016E00123201C5B42E3815F
:103880000233A38167662760A7606760276167616D
:10389000A7615C30391C0822FFF7D1FC201C67634C
:1038A000A763A764E764F8BDF03D0000F7B5041C0A
:1038B000071C002601914834002C16D06368A568C7
:1038C0000093009B013B00930DD4AB89012B08D9D9
:1038D0000E22AB5E013304D0381C291C019B984793
:1038E00006436835EDE72468E6E7301CFEBD0000BE
:1038F000F0B58B8991B09B0706D50B1C47330B6045
:103900000B6101234B6145E00C1C0E23C95E061CB4
:10391000002904DA8023A5891D4010D10CE001AAFA
:1039200000F06AF90028F5DBF023029D1B021D4020
:10393000194BED186B425D418027FF0001E0002527
:103940004027301C391C00F07BF800280CD1A389DB
:103950009A051FD402221343A381231C47332360FB
:1039600023610123636115E080220C4BB362A389BC
:1039700020601343A38120616761002D0AD00E23CC
:10398000E15E301C00F04AF9002803D00122A3892F
:103990001343A38111B0F0BD00E0FFFF49370000E1
:1039A00008B5034B011C186800F04AF808BDC04672
:1039B0006800002030B500293ED004390B68002B88
:1039C00000DAC9181D4A1368141C002B02D14B6081
:1039D000116031E099420DD208680A189A4203D169
:1039E0001368C3180B6053684B60216024E08A425F
:1039F00003D8131C5A68002AF9D11D685C198C423F
:103A00000BD10968691858181960904214D11068D0
:103A10005268091819605A600EE08C4202D90C23D2
:103A2000036009E008680C18944203D114685268D6
:103A3000001908604A60596030BDC046A0010020EE
:103A4000032370B5CC1C9C430834051C0C2C01D2FC
:103A50000C2405E0002C03DA0C2300202B6042E04C
:103A60008C42F9D3204A1368101C191C002913D06A
:103A70000A68121B0DD40B2A02D90A608B181FE0AA
:103A80008B4202D15A6802601BE04A685A600B1CE4
:103A900017E00B1C4968E9E7144E3368002B03D18B
:103AA000281C00F025F83060281C211C00F020F8AC
:103AB000031C421CD0D00322C61C964386420AD166
:103AC0001C60181C07210B301A1D8843821A0AD06B
:103AD0005142995007E0311A281C00F009F8431CA4
:103AE000BAD0331CECE770BDA00100209C0100207F
:103AF00038B50023064C051C081C2360FEF73EFA6F
:103B0000431C03D12368002B00D02B6038BDC04676
:103B10006402002038B50C1C0E25495F00F0A4F8A3
:103B2000002803DB636D1B18636503E0A289024B69
:103B30001340A38138BDC046FFEFFFFFF8B51E1C40
:103B40008B89051C0C1C171CDB0505D50E23C95ED3
:103B50000022022300F074F8A289054B281C1340B0
:103B6000A3813A1C0E23E15E331C00F01FF8F8BD60
:103B7000FFEFFFFF38B50C1C0E25495F00F060F821
:103B8000A389421C03D1054A1340A38104E080228B
:103B900052011343A381606538BDC046FFEFFFFFAC
:103BA00008B50E23C95E00F015F808BD38B5051C30
:103BB0000020074C2060081C111C1A1CFCF7CCFCD0
:103BC000431C03D12368002B00D02B6038BDC046B6
:103BD0006402002038B50023064C051C081C236035
:103BE000FEF7DEF9431C03D12368002B00D02B60C5
:103BF00038BDC0466402002038B50023064C051CC1
:103C0000081C111C2360FEF7CFF9431C03D1236865
:103C1000002B00D02B6038BD6402002038B5002393
:103C2000064C051C081C2360FEF7C4F9431C03D195
:103C30002368002B00D02B6038BDC04664020020F2
:103C400038B5051C0020074C2060081C111C1A1CEC
:103C5000FEF7B2F9431C03D12368002B00D02B6080
:103C600038BDC0466402002038B5051C0020074C52
:103C70002060081C111C1A1CFCF74CFC431C03D1CF
:103C80002368002B00D02B6038BDC04664020020A2
:103C900000080042000C00420010004200140042E4
:103CA00000180042001C0042090A0B0C0D0E000017
:103CB0009A1700009617000096170000F6170000EC
:103CC000F6170000B0170000A0170000B61700009C
:103CD000E4170000DC190000BC190000BC1900004A
:103CE000481A0000CE190000EA190000C0190000AF
:103CF000F8190000381A0000496E74657272757008
:103D000074202D2053656D6170686F726520676542
:103D10006E6572617465642E0D00000050524F474D
:103D200052414D205354415254210D00722800003D
:103D30003A280000562800002E28000056280000CF
:103D40009A270000562800002E2800003A2800007C
:103D50003A2800009A2700002E280000D8280000EA
:103D6000D8280000D82800005C2800003A2800006D
:103D70003A280000222900002C28000022290000F7
:103D80009A270000222900002C2800003A28000071
:103D90003A2800009A2700002C280000D8280000AC
:103DA000D8280000D828000006290000C62A0000F4
:103DB000BE2A0000BE2A0000B62A0000082A000021
:103DC000082A0000AC2A0000B62A0000082A0000D9
:103DD000AC2A0000082A0000B62A00000A2A0000C7
:103DE0000A2A00000A2A0000502B000043000000AD
:103DF000080000200000000000000000000000009B
:103E000000000000000000000000000000000000B2
:103E100000000000000000000000000000000000A2
:103E20000000000000000000000000000000000092
:103E30000000000000000000000000000000000082
:103E40000000000000000000000000000000000072
:103E500000000000F8B5C046F8BC08BC9E4670479C
:103E6000DD000000F8B5C046F8BC08BC9E467047AF
:043E7000B500000099
:103E7400FFFFFFFF0100000000000000F43D000010
:103E8400143E0000343E000000000000000000006A
:103E94000000000000000000EC3D000000000000F5
:103EA400000000000000000000000000000000000E
:103EB40000000000000000000000000000000000FE
:103EC40000000000000000000000000000000000EE
:0C3ED400000000000000000008000020BA
:0400000300001E8556
:00000001FF
